:0A0000000C943F010C9400000C94D6
:10000A0000000C9435030C9414020C9411020C9405
:10001A0012020C9413020C940A020C94BF010C9461
:10002A0000000C946F010C9400000C949F010C9436
:10003A0000000C9400000C9400000C9400000C9436
:10004A0000000C9409020C9400000000C0C1C18198
:10005A000140C30103C00280C241C60106C0078035
:10006A00C7410500C5C1C4810440CC010CC00D8044
:10007A00CD410F00CFC1CE810E400A00CAC1CB814B
:10008A000B40C90109C00880C841D80118C01980AD
:10009A00D9411B00DBC1DA811A401E00DEC1DF81B3
:1000AA001F40DD011DC01C80DC411400D4C1D58174
:1000BA001540D70117C01680D641D20112C013804D
:1000CA00D3411100D1C1D0811040F00130C031803C
:1000DA00F1413300F3C1F28132403600F6C1F781B3
:1000EA003740F50135C03480F4413C00FCC1FD8144
:1000FA003D40FF013FC03E80FE41FA013AC03B80CD
:10010A00FB413900F9C1F88138402800E8C1E9818A
:10011A002940EB012BC02A80EA41EE012EC02F8034
:10012A00EF412D00EDC1EC812C40E40124C0258073
:10013A00E5412700E7C1E68126402200E2C1E381CA
:10014A002340E10121C02080E041A00160C061801C
:10015A00A1416300A3C1A28162406600A6C1A78132
:10016A006740A50165C06480A4416C00ACC1AD8143
:10017A006D40AF016FC06E80AE41AA016AC06B804C
:10018A00AB416900A9C1A88168407800B8C1B981AA
:10019A007940BB017BC07A80BA41BE017EC07F80B4
:1001AA00BF417D00BDC1BC817C40B40174C0758073
:1001BA00B5417700B7C1B68176407200B2C1B3814A
:1001CA007340B10171C07080B041500090C19181FB
:1001DA005140930153C052809241960156C05780B4
:1001EA009741550095C1948154409C015CC05D8043
:1001FA009D415F009FC19E815E405A009AC19B81CA
:10020A005B40990159C058809841880148C049808B
:10021A0089414B008BC18A814A404E008EC18F8131
:10022A004F408D014DC04C808C41440084C1858172
:10023A004540870147C046808641820142C04380CB
:10024A008341410081C180814040000000000000DC
:10025A0000000000000000000000FF0000FF010095
:10026A002D4E414E000004000700640201003A02CC
:10027A0068020000F894EE27ECBBF1E0FBBFEBBF8D
:10028A00E5BFF8E1F1BDE1BD8DE0A2E0BB27ED934A
:10029A008A95E9F780E094E0A0E6ED930197E9F703
:1002AA00E0E7F2E085919591009761F0A591B5910B
:1002BA0005901590BF01F00105900D920197E1F7A5
:1002CA00FB01F0CFEFE5EDBFE4E0EEBFC0E6D1E021
:1002DA000C948007AA93EA93FA93EFB7EA931A93D6
:1002EA000A931BB10CB1E12FEC7161F4A0E021FC7F
:1002FA00A1E0A03029F4A0E020FCA1E0A03009F0A0
:10030A0001C001C006C0992019F4689422F8BB24E0
:10031A00982CEB2D0E9415180083B394E0E4BE16C6
:10032A0008F0BB246394E0E46E1608F06624099191
:10033A0019911AC0AA93EA93FA93EFB7EA93A0E045
:10034A0021FCA1E0A13081F4D394E0E4DE1608F0A8
:10035A00DD24CD1419F00E94191806C0E89421F87A
:10036A0020F822F892986624E991EFBFF991E99171
:10037A00A9911895AA93EA93EFB7EA93EFE6E2BF39
:10038A00A895A0E023FCA1E0A13029F4A0E026FC76
:10039A00A1E0A13009F00CC0A0E024FCA1E0A1304A
:1003AA0019F4959AE89402C09598689424F81AC0AA
:1003BA00A0E025FCA1E0A130A1F40E94201828F0B9
:1003CA00E89425F8E0E0E093E001A0E024FCA1E055
:1003DA00A13019F4959AE89402C09598689424F883
:1003EA0001C09598A0E025FCA1E0A13041F40E944B
:1003FA00201828F0E89425F8E0E0E093E001E9917C
:10040A00EFBFE991A99118951895EA93E5E0EDBD3A
:10041A00E1E0ECBDE99118951895189518956A933D
:10042A007A93AA93BA93EA93FA93EFB7EA931A9351
:10043A00EEE5E4BD78940E942718EF5FFF4F6F4FF7
:10044A007F4FE093EB01F093EC016093ED01709321
:10045A00EE01992041F4A0E022FCA1E0A13011F4C0
:10046A00689420F801C09A94989911C0689427F862
:10047A00A0E033FCA1E0A03019F40E94301809F082
:10048A0004C0689437F80E94351868940FC00E9417
:10049A003B1849F40E94401831F40E94451819F497
:1004AA000E944A1808F403C0E89427F833F8999987
:1004BA000FC0689430F80E94511819F40E9430183D
:1004CA0009F004C0689440F80E943518689411C075
:1004DA00A0E09899A1E0A13049F40E94401831F4B3
:1004EA000E94451819F40E944A1808F403C0E894B7
:1004FA0030F834F886990FC0689431F80E9456187B
:10050A0019F40E94301809F004C0689441F80E9456
:10051A003518689411C00E943B1859F4A0E09899C4
:10052A00A1E0A13031F40E94451819F40E944A183A
:10053A0008F403C0E89431F835F8879916C068942E
:10054A0032F836FC0CC042F825F80E942718E093CE
:10055A00EF01F093F0016093F1017093F201689456
:10056A0036F8E89446F847F803C0E89432F836F8C3
:10057A00A5EFB1E0ED91FD913196FE93EE93E13D49
:10058A00A7E0FA0734F0E0E0F0E0E093F501F09339
:10059A00F601A091F501B091F601AC32E1E0BE0797
:1005AA0074F411E0E89423F80E945B1819F00E9491
:1005BA00601811F4689401C0E89423F809C010E0A7
:1005CA000E94651819F00E946A1811F4689423F8B9
:1005DA00EFEFEBBBE5B3E770E5BBE091F301E43085
:1005EA0059F4E0E0E093F301AB9AA39A0E946F18E2
:1005FA00EF51FE4FE08129C0E33041F4E4E0E0939B
:10060A00F301AC9AA49AA3EEB1E01BC0E23041F424
:10061A00E3E0E093F301AD9AA59AA5EEB1E011C02B
:10062A00E13041F4E2E0E093F301AE9AA69AA7EE34
:10063A00B1E007C0E1E0E093F301AF9AA79AA9EE0F
:10064A00B1E0EE27A10FBE1FEC91EBBB1991E99126
:10065A00EFBFF991E991B991A991799169911895A9
:10066A001895E881E03011F4E0E475C0E13011F446
:10067A00E9E771C0E23011F4E4E26DC0E33011F44D
:10068A00E0E369C0E43011F4E9E165C0E53011F452
:10069A00E2E161C0E63011F4E2E05DC0E73011F456
:1006AA00E8E759C0E83011F4E0E055C0E93011F448
:1006BA00E0E151C0E03211F4EFE74DC0EF3511F43B
:1006CA00E7E749C0E33D11F4E1E145C0E13611F441
:1006DA00E8E041C0EF3E11F4E8E43DC0E33611F42E
:1006EA00E6E439C0E03711F4ECE035C0ED3211F43C
:1006FA00EFE331C0E23711F4EFE22DC0E43711F431
:10070A00E7E029C0E23611F4E3E025C0E43611F44B
:10071A00E1E221C0E53611F4E6E01DC0E63611F447
:10072A00EEE019C0E73611F4E2E415C0E83611F438
:10073A00E5E611C0EB3611F4EAE00DC0E93611F432
:10074A00EFE409C0EC3611F4E7E405C0E63711F42A
:10075A00E1E401C0E2E7E88341C11A930E947218FA
:10076A0011F4E0E0ED83EC81E03021F41091E10135
:10077A00106803C01091E1011F771093E101EB812A
:10078A00E03021F41091E301106803C01091E301F5
:10079A001F771093E301EA81E03021F41091E5011B
:1007AA00106803C01091E5011F771093E501E981F4
:1007BA00E03021F41091E701106803C01091E701BD
:1007CA001F771093E701A885A03029F4A0E043FC25
:1007DA00A1E0A03009F004C0E091E901E16003C0A2
:1007EA00E091E901EE7FE093E901AF81A03029F4BD
:1007FA00A0E045FCA1E0A03009F004C0E091E901C5
:10080A00E26003C0E091E901ED7FE093E901AE8186
:10081A00A03029F4A0E044FCA1E0A03009F004C013
:10082A00E091E901E46003C0E091E901EB7FE09324
:10083A00E901ED81E03021F4E091E901E86003C0CB
:10084A00E091E901E77FE093E90174C01A930E94FD
:10085A00721811F4E0E0ED83EC81E03021F410919C
:10086A00E201106803C01091E2011F771093E201C0
:10087A00EB81E03021F41091E401106803C010917B
:10088A00E4011F771093E401EA81E03021F410912A
:10089A00E601106803C01091E6011F771093E60184
:1008AA00E981E03021F41091E801106803C0109149
:1008BA00E8011F771093E801A885A03029F4A0E089
:1008CA0043FCA1E0A03009F004C0E091EA01E16034
:1008DA0003C0E091EA01EE7FE093EA01AF81A03024
:1008EA0019F40E94771809F004C0E091EA01E26065
:1008FA0003C0E091EA01ED7FE093EA01AE81A03006
:10090A0019F40E947C1809F004C0E091EA01E4603D
:10091A0003C0E091EA01EB7FE093EA01ED81E03068
:10092A0021F4E091EA01E86003C0E091EA01E77F7F
:10093A00E093EA011881299608951A931091E1012A
:10094A000E9481181093E1011091E3010E94881816
:10095A001093E3011091E5010E948F181093E501AD
:10096A001091E7010E9496181093E70119C01A9393
:10097A001091E2010E9481181093E2011091E401A2
:10098A000E9488181093E4011091E6010E948F18C2
:10099A001093E6011091E8010E9496181093E8015D
:1009AA001881259608950E949D180E94A11CDF01B6
:1009BA00E881F0E0AE27BF27EFEFF0E0EA23FB2360
:1009CA00A4E5B0E0EE0FFF1FEA0FFB1F0E94CB1C4D
:1009DA00DF01F091F701E0E00E94A2182196089544
:1009EA0062971A930A93AC89BD898E899F89E0E040
:1009FA00F0EC69E774EC0E94A21E20F4EC8BFD8BEC
:100A0A006E8B7F8BAC89BD898E899F89E0E0FCE380
:100A1A006CE176E40E94A21E09F010F40C94190508
:100A2A00EC8BFD8B6E8B7F8BEC89FD896E897F89C0
:100A3A000E94CF1CE5E0EA93FE013796FA93EA9307
:100A4A000E94F81610E019304CF40E946F180E94A8
:100A5A00A918AC91AE3211F01F5FF5CF04E0103047
:100A6A0014F000300CF40FC00E94AE18EA0FFB1FFE
:100A7A000F010E946F180E94A918EC91D001EC9303
:100A8A0011500150ECCFE3E0E01B1E2F003044F080
:100A9A000E94AE18AE0FBF1FE0E3EC930150F6CFF1
:100AAA0004E0193014F409300CF00FC00E94AE189B
:100ABA00EA0FFB1F0F010E946F180E94A918EC9100
:100ACA00D001EC931F5F0F5FECCF093044F40E9412
:100ADA00AE18AE0FBF1FE0E3EC930F5FF6CFA09105
:100AEA00FA01A13039F5AB85AD3211F4EDE207C058
:100AFA00EB85E03011F4E0E002C0EB85E053E093CF
:100B0A00FF01EC85E053E093FE01ED85E053E093AD
:100B1A00FD01EE850E94B31869F40E94BA1851F4D7
:100B2A00E0E2E093FE01E091FD01E03019F4E0E239
:100B3A00E093FD01A091FA01A23051F5AC85AD32E6
:100B4A0011F4EDE207C0EC85E03011F4E0E002C0F8
:100B5A00EC85E053E093FF01AD85AD3211F4EDE28F
:100B6A0007C0ED85E03011F4E0E002C0ED85E05306
:100B7A00E093FE01EE85E053E093FD01E8890E94CF
:100B8A00B31831F40E94BA1819F4E0E2E093FE01B6
:100B9A00A091FA01A33039F5AD85AD3211F4EDE239
:100BAA0007C0ED85E03011F4E0E002C0ED85E053C6
:100BBA00E093FF01AE85AD3211F4EDE207C0EE8598
:100BCA00E03011F4E0E002C0EE85E053E093FE016C
:100BDA00E889E053E093FD01E9890E94B31819F40A
:100BEA00E0E2E093FF01A091FA01A43021F5AE857D
:100BFA00AD3211F4EDE207C0EE85E03011F4E0E029
:100C0A0002C0EE85E053E093FF01A889AD3211F4EA
:100C1A00EDE207C0E889E03011F4E0E002C0E889BB
:100C2A00E053E093FE01E989E053E093FD01EA898C
:100C3A00E053E093FC0119810881689608951A939C
:100C4A000A93C498E1E5EDB90E94C11851F0E13068
:100C5A0011F4E9EB07C0E23021F0E33011F4E9EBDB
:100C6A0001C0E1EBEFB9779BFECF0FB11127E0E0AE
:100C7A00EFB9102F0027779BFECFEFB1F0E00E0FF0
:100C8A001F1FC49AF801099119910895A091200291
:100C9A00A53140F00E94CE18A83618F0E6E6E09397
:100CAA00020246C0A0910202A53668F00E94CE1840
:100CBA00AB3640F0E6E6E0930202E0912002EF5FF5
:100CCA00E093200235C0A0912902B0912A028091B6
:100CDA002B0290912C020E94D418E333A0E0FA0769
:100CEA00A0E06A07A0E07A0724F0A0910102A130EF
:100CFA0008F41EC00E942718E0932902F0932A02E2
:100D0A0060932B0270932C02A0910102A150A09330
:100D1A000102A43168F4E8E2E09301020E94CE18CD
:100D2A00A53030F0E6E6E0930202EAEFE093010232
:100D3A0008952D971A930A93A0911502AF5FA09375
:100D4A001502A93018F0E0E0E09315020E94D818C5
:100D5A00EA0FFB1FFF93EF9372DFAF91BF91ED9301
:100D6A00FC9319E0E0E0E0931E02A0911E02A93074
:100D7A0010F00C94FC060E94E018E0E0EC93E0937B
:100D8A000002A0910002A930D8F4E0911E02EA17ED
:100D9A00A1F00E94E8180E161F0628F40E94E01817
:100DAA00EC91E150EC930E94E818E015F10528F463
:100DBA000E94E018EC91EF5FEC930E94FF18E1CFDC
:100DCA000E94E018EC91EA930E94F316E11748F4A6
:100DDA000E94E018EC91EA930E94F3161E2F0091EC
:100DEA001E02E0911E02EF5FE0931E02BECFA0E456
:100DFA00B0E00E94E61C0E9405190E940A190E948E
:100E0A00C21E31F4EFE6F2E163E87AE30E940519C3
:100E1A000E940A19AFE6B2E183E89AE30E945D1ED6
:100E2A000E940519E02FA3E0B2E0F0E0EE0FFF1FE9
:100E3A000E940F190E9414190E9419190E940F1E6C
:100E4A007F936F93FF93EF930E9414190E941E19C8
:100E5A000E94BA1DA0911A02B0911B0280911C0235
:100E6A0090911D020E940F1EAF91BF918F919F9189
:100E7A000E94C11DE0931A02F0931B0260931C02A8
:100E8A0070931D02198108812F96089565917491B6
:100E9A00E62FF72F22960895EFEFEBBBEABBE0E0CF
:100EAA00E8BBE3EBE7BBEBEFE5BBE8EFE4BBE3EC66
:100EBA00E2BBEEE3E1BBE3E0E3BFEFE6E2BFE0E083
:100ECA00ECBFE2BDE4E0E5BDEEE5E4BDE0E0E3BD94
:100EDA00E5BFE4BFEFEFE9BFE0E8E8B9E0E0E0BF73
:100EEA00E2E5EDB9E0E0EEB9EFE1E1BDEFE0E1BD49
:100EFA00ECE38E2E0895ED978FE0A0E0B0E0E4E5F4
:100F0A00F2E00E94D61E0E942319ED8BFE8B6F8B96
:100F1A00788F0E942819E98BFA8B6B8B7C8B50E0B7
:100F2A0040E00E942D190E943419B6DFF894AC8172
:100F3A00BD81EEEFFFEF0E94BC1C0E2EAA81BB8181
:100F4A00EEEFFFE30E94B61CE029C1F0EA81FB81C3
:100F5A00FA93EA939BDFEC83FD830E94A11CE88B42
:100F6A00EC81EF87E889EA931EDDEF85EA931BDDC2
:100F7A00EA81FB813296EA83FB83D9CF0E949D18CE
:100F8A00A1EBB1E00E94021DE0E0E0930002789438
:100F9A000E943B19939AE0E0E883E983A881B9812A
:100FAA00129714F00C9448080E9448190E94551987
:100FBA000E9462190E946519E1E0E093FF01E0E0F6
:100FCA000E948319E0E00E9489190E9462190E9416
:100FDA006519E3E6E093FF01E2E7E093FE01E3E649
:100FEA00E093FD01E0E20E9489190E9462190E94C1
:100FFA006519E3E0E093FF01E3E60E948C19E1E062
:10100A000E9489190E9462190E946519E0E2E09320
:10101A00FF010E9492190E9489190E946219A7DC95
:10102A00A1EBB1E00E94EA1C0F01A3EBB1E00E9420
:10103A00EA1CE015F10551F4E0E0E093FF01EBE66C
:10104A000E949219E093FC01E1E00DC0E6E6E0930C
:10105A00FF01E1E6E093FE01E9E6E093FD01ECE63B
:10106A00E093FC01E0E0EE870E9455190E946219A4
:10107A007EDCECEDF5E00E949819E881F981319661
:10108A00E883F9838BCF08DF0E949C190E94A1197B
:10109A00F8949398AE85A13011F00C94BC12A0E09C
:1010AA009899A1E0A03079F4A0E09999A1E0A03044
:1010BA0051F4A0E08699A1E0A03029F4A0E0879934
:1010CA00A1E0A03009F001C0EACFA0910002A43645
:1010DA00E8F4A0E09899A1E0A03059F4A0E087993B
:1010EA00A1E0A03031F40E943B1819F40E94401884
:1010FA0009F004C0E0910002EF5F01C0E0E0E09374
:10110A000002E4E1F0E00E949819DFCF939A0E946E
:10111A00AA190E94AF19ACA9AA239AF40E94B41979
:10112A000E94B91910F0E1E009C00E94C01910F03C
:10113A00E2E004C00E94C81918F0E3E0E093FA0163
:10114A0015C00E94D01910F4E4E00EC00E94D8190C
:10115A0010F4E3E009C00E94E01910F4E2E004C0D0
:10116A000E94E01918F0E1E0E093FA010E94E81900
:10117A0078940E943B190E94ED190E94ED190E9471
:10118A00F2190E94F6190E94ED190E94F2190E94A2
:10119A002B040E94F9197F936F93FF93EF93A4E4B2
:1011AA00B0E00E94021AAF91BF918F919F910E9465
:1011BA00D61C0E94A21E10F00C949C090E940B1AC5
:1011CA0021F4E3ED0E94121A1BC0E33011F4E3E0AC
:1011DA0011C0E43021F4E3E00E94121A11C0E53094
:1011EA0019F40E94191A0CC0E63019F40E94201A48
:1011FA0007C0E3EDE093FF01EFE5E093FE01E1E0D4
:10120A00E093FD010E9455190E946219B0DB0E9409
:10121A00ED190E94ED190E94F2190E94F6190E9416
:10122A00ED190E94F2190E942B04E4EFF1E00E94EA
:10123A0098190E94271A0E942F1A0E94AF19E0914A
:10124A001F02E23011F4E3E01CC0E33029F4E4E0C9
:10125A00E0931F02E1E019C0E43029F4E5E0E093ED
:10126A001F02E1E012C0E53029F4E6E0E0931F0234
:10127A00E1E00BC0E63021F4E1E0E0931F0205C093
:10128A00E2E0E0931F02E091FB01E093FA010E9481
:10129A00341A0E9455190E9462190E94BC04A09136
:1012AA00FA01A13059F40E94ED190E94ED190E9429
:1012BA00F2190E94F619E0E0EA932DC0A091FA0112
:1012CA00A23051F40E94ED190E94ED190E943C1AB5
:1012DA000E94ED19E1E023C0A091FA01A33061F464
:1012EA000E94ED190E94F2190E94411A0E94F619F1
:1012FA000E94F219E1E011C0A091FA01A43091F420
:10130A000E94ED190E94441A0E94ED190E94F619D2
:10131A00E0E0EA93E1E0EA93E0E0EA93E0E0EA93CE
:10132A000E94491AE4EFF1E00E94981932CFE0E0F6
:10133A00E0BDEFE5E9B9E8EDEAB9E6E8E0BDE2E0EB
:10134A00EBB90E942D19939AE89433F834F835F8DA
:10135A0036F837F840F841F87894E0E0E093F9017C
:10136A000E949C19E0931602F093170260931802E8
:10137A00709319020E944D1AA8E5B0E00E94E61C7B
:10138A00E9A7FAA76BA77CA70E9434190E94E8195B
:10139A00E89421F8BB24DD24CC24A895CADCEDA767
:1013AA00FEA76FA778AB0E94C11829F40E944F1AB2
:1013BA000E945A1A2FC0E13079F40E944F1AA0E015
:1013CA00B0E080EA90E40E940F1EDF01CB01E0E06A
:1013DA00F0E661E675E41EC0E23029F40E944F1A75
:1013EA000E945A1A17C0E33039F40E944F1AA0E03B
:1013FA00B0E080E291E406C00E944F1AA0E0B0E09B
:10140A0080EA90E40E940F1EDF01CB01E0E0F0EBDE
:10141A0066E675E40E945D1EE0932E02F0932F02A9
:10142A0060933002709331020E94C11889F50E94BC
:10143A00AA197F936F93FF93EF930E94671AAF9154
:10144A00BF918F919F910E946C1ADF01CB01E0E05E
:10145A00F0E060E871E40E94711A7F936F93FF9342
:10146A00EF930E94781A0E947D1A0E940F1EAF9174
:10147A00BF918F919F910E946C1A0E94821A0E94BA
:10148A007D1AED8FFE8F6F8F78A30E94871A8FC007
:10149A00E130D9F40E94AA197F936F93FF93EF93D7
:1014AA000E94671AAF91BF918F919F910E946C1A07
:1014BA000E948C1A7F936F93FF93EF930E94931A63
:1014CA00AF91BF918F919F9168C0E23029F50E9438
:1014DA00AA197F936F93FF93EF930E94671AAF91B4
:1014EA00BF918F919F910E946C1ADF01CB010E94DC
:1014FA00871A0E94711A7F936F93FF93EF930E944A
:10150A00931AAF91BF918F919F910E946C1A0E947A
:10151A00981A0E94871A4BC0E33029F50E94AA192B
:10152A007F936F93FF93EF930E94671AAF91BF91D6
:10153A008F919F910E946C1ADF01CB010E949F1A22
:10154A000E94711A7F936F93FF93EF930E94931AED
:10155A00AF91BF918F919F910E946C1A0E94981A25
:10156A000E949F1A24C00E94AA197F936F93FF9327
:10157A00EF930E94671AAF91BF918F919F910E943A
:10158A006C1A0E948C1A7F936F93FF93EF930E94B9
:10159A00931AAF91BF918F919F910E94D91C0E947B
:1015AA00BA1D0E94981AE0E0F0E060EA70E4E98F60
:1015BA00FA8F6B8F7C8FEDA1FEA16FA178A50E9497
:1015CA00A41A0E94AD1A0E94BE1A0E94CF1A0E9443
:1015DA00A41A0E94A21E58F4689443F80E94BE1AE4
:1015EA000E94CF1A0E94781A0E94AD1A13C00E9454
:1015FA00D61A0E94EF1A09F010F40C940D0B689495
:10160A0043F80E94D61A0E94781A0E94AD1A02C0A4
:10161A00E89443F80E94651819F40E945B1809F0CF
:10162A0031C0E0E036FCE1E0E13059F50E94FA1AF7
:10163A0009F010F40C94320B689444F80E942319B0
:10164A007F936F93FF93EF930E94FF1AAF91BF911D
:10165A008F919F910E940F1E0EC00E94101B39F09D
:10166A000E941A1B19F40E94221B09F002C0E89476
:10167A0046F80E942319ED8BFE8B6F8B788FE894C6
:10168A0036F829C00E94FA1A09F010F40C945E0B7D
:10169A00689444F80E9423197F936F93FF93EF9302
:1016AA000E94FF1AAF91BF918F919F910E940F1EC6
:1016BA000EC00E94101B39F00E941A1B19F40E94D6
:1016CA00221B09F002C0E89446F80E942319ED8B08
:1016DA00FE8B6F8B788F0E946A1819F40E9460182B
:1016EA0009F031C0E0E036FCE1E0E13059F50E9452
:1016FA00291B09F010F40C94930B689445F80E9486
:10170A0028197F936F93FF93EF930E94FF1AAF916B
:10171A00BF918F919F910E940F1E0EC00E942E1B97
:10172A0039F00E941A1B19F40E94381B09F002C0F2
:10173A00E89447F80E942819E98BFA8B6B8B7C8B0B
:10174A00E89436F829C00E94291B09F010F40C9479
:10175A00BF0B689445F80E9428197F936F93FF93F3
:10176A00EF930E94FF1AAF91BF918F919F910E94B0
:10177A000F1E0EC00E942E1B39F00E941A1B19F46C
:10178A000E94381B09F002C0E89447F80E94281901
:10179A00E98BFA8B6B8B7C8B0E945B1811F4C09AD5
:1017AA0001C0C0980E94601811F4C19A01C0C19882
:1017BA00A0E0F0FCA1E0A130D9F4E9ADFAAD6BAD3F
:1017CA007CAD0E943F1B7F936F93FF93EF93ACE036
:1017DA00B0E00E944A1BAF91BF918F919F910E94E6
:1017EA00A21E09F010F40C94FC0B689446F829C068
:1017FA000E94651831F50E94531B0E941A1B29F496
:10180A000E94581B0E941A1B09F003C0689452F8E0
:10181A0026F80E945D1B59F00E941A1B39F4A4E2B3
:10182A00B0E00E94E61C0E941A1B09F00AC00E943E
:10183A0027180E94871DE9AFFAAF6BAF7CAF689497
:10184A00F0F8A0E044FCA1E0A03029F4A0E045FCB7
:10185A00A1E0A03009F027C00E947C1839F00E944C
:10186A005B1819F40E94221B09F00BC00E9477181A
:10187A0039F00E94601819F40E94381B09F001C05F
:10188A0001C003C0E89452F826F8A0E050FCA1E099
:10189A00A03029F4A0E051FCA1E0A03009F003C077
:1018AA00E89452F826F80E94531B0E94C21E11F4B3
:1018BA00E89426F8A0E0F1FCA1E0A130D9F4EDA962
:1018CA00FEA96FA978AD0E943F1B7F936F93FF9388
:1018DA00EF93A0E1B0E00E944A1BAF91BF918F91B4
:1018EA009F910E94A21E09F010F40C947E0C689439
:1018FA0047F829C00E946A1831F50E94531B0E94BA
:10190A001A1B29F40E94581B0E94641B09F003C089
:10191A00689452F826F80E945D1B59F00E941A1B1F
:10192A0039F4A8E2B0E00E94E61C0E941A1B09F0F2
:10193A000AC00E9427180E94871DEDABFEAB6FAB51
:10194A0078AF6894F1F8A0912502B09126028091AF
:10195A002702909128020E94D4187F936F93FF93D5
:10196A00EF93ACE4B0E00E94021AAF91BF918F915D
:10197A009F910E94D61C0E94A21E09F010F40C949A
:10198A00CB0CE0E0E093F901E894F2F8A0E042FC25
:10199A00A1E0A13021F4A091F901A03009F004C01E
:1019AA00E89442F86894F3F8A0E0F3FCA1E0A130CF
:1019BA0041F40E946C1B29F4A0E027FCA1E0A030AE
:1019CA0009F00CC00E94711B0E947A1B3CF0EAE0ED
:1019DA00E093F9010E94821BE894F3F8A0E0F3FC7B
:1019EA00A1E0A13071F40E946C1B59F4A0E027FC1D
:1019FA00A1E0A13031F40E943B1819F40E9440186A
:101A0A0009F006C00E94711B0E947A1B0CF03BCBA6
:101A1A00E091F901E03011F00C94930DE1E0E093CC
:101A2A001F02E091FB01E093FA010E947C1839F051
:101A3A000E945B1819F40E94221B09F00BC00E9435
:101A4A00771839F00E94601819F40E94381B09F0BF
:101A5A0001C001C025C00E948C1B0E94C21E19F43D
:101A6A000E94911B15C00E948C1B0E94641B71F47A
:101A7A000E94D8180E940F19A6E3B2E00E94191911
:101A8A000E94C61CE1E0E093FA010AC00E949A1B78
:101A9A00E0933602F093370260933802709339026A
:101AAA000E94A31B51F40E94ED190E94B31B0E94CD
:101ABA00B61BE1E0EA93E0E02AC0A091FA01A23065
:101ACA0051F40E94ED190E94411A0E943C1A0E9488
:101ADA00411AE1E020C0A091FA01A33061F40E940A
:101AEA00ED190E94B91B0E94411A0E94F6190E9420
:101AFA00B91BE1E00EC0A091FA01A43079F40E946A
:101B0A00ED190E94BE1B0E94F619E1E0EA93EA93DE
:101B1A00E0E0EA93E0E0EA930E94491AA091F90111
:101B2A00A13011F00C94E10DE0911F020E94C21B3A
:101B3A000E940B1A51F4E3EDE093FF01EFE50E94D6
:101B4A008C190E94441AE0E02AC0E33011F4E3E061
:101B5A001DC0E43051F4E3E0E093FF01EFE50E9499
:101B6A008C190E94441AE0E01AC0E53031F40E9450
:101B7A00191A0E94CB1BE0E012C0E63031F40E9431
:101B8A00201A0E94CB1BE0E00AC0E3EDE093FF01BC
:101B9A00EFE5E093FE01E1E00E94CB1BE1E0EA936E
:101BAA000E94B31BE0E0EA930E94B2030E94ED197F
:101BBA000E94B31B0E94491AA091F901A23011F0A8
:101BCA000C943D0EA0911F02A73018F0E1E0E093BB
:101BDA001F02A0911F02A33018F4E091FB0101C07B
:101BEA00E1E0E093FA010E94341AA091FA01A130CF
:101BFA0059F40E94ED190E94ED190E94F2190E94EF
:101C0A00F619E0E0EA932DC0A091FA01A23051F44E
:101C1A000E94ED190E94ED190E943C1A0E94ED19CA
:101C2A00E1E023C0A091FA01A33061F40E94ED190A
:101C3A000E94F2190E94411A0E94F6190E94F21992
:101C4A00E1E011C0A091FA01A43091F40E94ED19CB
:101C5A000E94441A0E94ED190E94F619E0E0EA93E4
:101C6A00E1E0EA93E0E0EA93E0E0EA930E94491AAD
:101C7A00A091F901AA3031F5A0911F02A73018F4FA
:101C8A00E7E0E0931F02E0911F02E6500E94C21BA8
:101C9A00E1E0E093FA01A091FD01A03219F4EFE529
:101CAA00E093FD01E1E6E093FF01EFE5E093FE0139
:101CBA000E94ED190E94B31B0E94B61B0E94B31B1F
:101CCA000E94491AA091F901AB3021F4A0911F0298
:101CDA00A63109F05DC0E091FB01E093FA010E9490
:101CEA00CE1BE9A7FAA76BA77CA70E948C1B0E94B0
:101CFA00C21E19F40E94911B02C00E949A1BE09313
:101D0A003602F093370260933802709339020E94C8
:101D1A00A31B51F40E94ED190E94B31B0E94B61B2B
:101D2A00E1E0EA93E0E02AC0A091FA01A23051F47E
:101D3A000E94ED190E94411A0E943C1A0E94411AFF
:101D4A00E1E020C0A091FA01A33061F40E94ED19EC
:101D5A000E94B91B0E94411A0E94F6190E94B91BDF
:101D6A00E1E00EC0A091FA01A43079F40E94ED19C5
:101D7A000E94BE1B0E94F619E1E0EA93EA93E0E0B2
:101D8A00EA93E0E0EA930E94491AE4E0E093FA0158
:101D9A00A091F901AB3021F4A0911F02A63109F4F8
:101DAA000CC1A0911F02AC3020F0A03110F4E1E088
:101DBA0001C0E0E00E2EA0911F02E8E10E94D31BB1
:101DCA00E9E10E94B11CE02961F1ACA9AA239AF4C5
:101DDA000E94B4190E94B91910F0E1E009C00E94EA
:101DEA00C01910F0E2E004C00E94C81918F0E3E03C
:101DFA00E093FA0115C00E94D01910F4E4E00EC075
:101E0A000E94D81910F4E3E009C00E94E01910F406
:101E1A00E2E004C00E94E01918F0E1E0E093FA0160
:101E2A0009C0A0911F02A03111F4E3E001C0E1E072
:101E3A00E093FA010E94341AA0911F02A63111F010
:101E4A000C94770F0E94CE1B0E94C21E49F4E4E054
:101E5A00E093FF01EDE20E948C190E94D91B40C059
:101E6A000E94B419A030E0E0BE07E0E88E07EFE375
:101E7A009E0749F40E94DE1B0E948319E5E0E09365
:101E8A00FC01E1E02DC00E94B419A030E0E0BE07D9
:101E9A00E0E08E07E0E49E0739F40E94DE1B0E9410
:101EAA008C190E94D91B1CC00E94B419A030E0E012
:101EBA00BE07E0E48E07E0E49E0751F40E94DE1BB1
:101ECA00E093FE01E1E0E093FD010E94D91B08C006
:101EDA000E94DE1B0E948319E5E0E093FC01E3E027
:101EEA00E093FA01A091FA01A13059F40E94ED1988
:101EFA000E94ED190E94F2190E94F619E0E0EA9395
:101F0A002DC0A091FA01A23051F40E94ED190E944D
:101F1A00ED190E943C1A0E94ED19E1E023C0A0913C
:101F2A00FA01A33061F40E94ED190E94F2190E948D
:101F3A00411A0E94F6190E94F219E1E011C0A0911B
:101F4A00FA01A43091F40E94ED190E94441A0E94E9
:101F5A00ED190E94F619E0E0EA93E1E0EA93E0E085
:101F6A00EA93E0E0EA930E94491AA0911F02AB317A
:101F7A00D9F4A5EBB1E00E94EE1CE093FF01A6EBB9
:101F8A00B1E00E94EE1CE093FE01A7EBB1E00E94D3
:101F9A00EE1CE093FD01A8EBB1E00E94EE1CE09379
:101FAA00FC01E0E0E093FA01A0911F02AC3129F4B0
:101FBA000E944819E0E0E093FA01A8E4B0E00E9428
:101FCA00E61C0E944E1D5E2F451789F1452FE52F0D
:101FDA00E03039F4A0E3B0E00E947D1A0E94E31BCE
:101FEA0022C0E130A9F0E23039F4A0E3B0E00E9467
:101FFA009C190E94E31B17C0E33051F4A0E3B0E040
:10200A000E94EC1B0E949F1A0E94FA1CE3E00BC07C
:10201A00A0E3B0E00E94EC1BE0E0F0E060EA70E4CC
:10202A000E94FA1CE4E0E093FA010E94F21BA0E08D
:10203A0034FCA1E0A13011F00C94DB100E94821B49
:10204A00E0910102E030E1F4A091F901AA3051F4E3
:10205A00A0911F02AF5FA0931F02AD3118F0ECE10F
:10206A00E0931F02A091F901A13051F4A0911F023F
:10207A00AF5FA0931F02A73018F0E6E0E0931F02BB
:10208A00A0910102A03039F0A53129F0A0910202F5
:10209A00A63609F088C0A091FA01A13099F40E94ED
:1020AA00CE1BA0E0B0E080E89FE30E94F91BACA938
:1020BA00AA231AF40E94C01908F403C0E2E0E093CC
:1020CA00FA0155C0A091FA01A230E1F40E94CE1B98
:1020DA00ADECBCEC8CEC9DE30E94F91B0E94FC1B4E
:1020EA001CF40E94E01908F402C0E1E008C0ACA99F
:1020FA00AA231AF40E94C81908F403C0E3E0E09383
:10210A00FA0135C0A091FA01A330D9F40E94CE1B7E
:10211A00AAE0B7ED83E29CE30E94F91B0E94FC1B34
:10212A001CF40E94D81908F401C007C0ACA9AA235C
:10213A001AF40E94C81908F403C0E2E0E093FA0115
:10214A0016C0A091FA01A43091F40E94CE1BAFE60A
:10215A00B2E183E89AE30E94F91B0E94FC1B1CF47B
:10216A000E94D01908F403C0E3E0E093FA010E9448
:10217A00001C0E94B4190E94A21E09F010F40C94CB
:10218A00CA100E94001C0E94AF19E0910102E030BF
:10219A0019F4ECE3E0930102A0910102A53119F4CC
:1021AA00E4E1E09301020E944B060FC0A091F901FD
:1021BA00A43641F0A0E036FCA1E0A03019F40E9458
:1021CA00561809F002C00E94081CA0E035FCA1E0E4
:1021DA00A13011F00C94A9110E94821BE091010216
:1021EA00E030E1F4A091F901AA3051F4A0911F0264
:1021FA00A150A0931F02A73018F4E7E0E0931F0252
:10220A00A091F901A13051F4A0911F02A150A0930D
:10221A001F02A13018F4E1E0E0931F02A09101022D
:10222A00A03039F0A53129F0A0910202A63609F0B2
:10223A0088C0A091FA01A13089F40E94B4190E94C1
:10224A001E190E946C1A0E94101C1CF40E94E019AC
:10225A0008F003C0E2E0E093FA015AC0A091FA0143
:10226A00A230F1F40E94B4190E94121C0E946C1A46
:10227A000E94101C1CF40E94D81908F002C0E3E066
:10228A000CC0ACA9AA233AF40E94C01919F010F0A4
:10229A000C94501101C003C0E1E0E093FA0138C088
:1022AA00A091FA01A33001F50E94B419EAE0F7ED12
:1022BA0063E27CE30E946C1A0E94101C1CF40E94C8
:1022CA00D01908F002C0E4E00CC0ACA9AA233AF481
:1022DA000E94C81919F010F00C94741101C003C0BF
:1022EA00E2E0E093FA0114C0A091FA01A43081F46B
:1022FA000E94B419EFE6F2E163E87AE30E946C1AED
:10230A000E94AF19ACA9AA231AF4E3E0E093FA01F8
:10231A000E94171C0E94B4190E94A21E20F40E9457
:10232A00171C0E94AF19E0910102E03019F4ECE3A6
:10233A00E0930102A0910102A53119F4E4E1E093CE
:10234A0001020E944B060FC0A091F901A43641F088
:10235A00A0E036FCA1E0A03019F40E94511809F05F
:10236A0002C00E94081CA0E042FCA1E0A130B1F426
:10237A000E946C1B99F40E94511881F40E9456180D
:10238A0069F4A0E033FCA1E0A03041F4A091F90186
:10239A00A03021F0AA3011F0A13009F479C0A0913F
:1023AA001F02E8E10E94B11C0E2EE9E10E94D31B34
:1023BA00EBE10E94D31BECE10E94B11CE02909F079
:1023CA0067C00E94271AAE0FBF1F0E94CE1B0E9431
:1023DA00FA1C0E94821BA0911F02AD3011F40E94C8
:1023EA00F21BA0911F02A73101F5E0E0E093000281
:1023FA00A0910002A631C8F4E0910002A0E0B0E08A
:10240A00F0E00E949C1CEA0FFB1F0F01ACE6B0E053
:10241A00E0910002F0E00E949C1C0E942F1AD00159
:10242A000E94FA1C0E94FF18E3CF0E941F1C0E9400
:10243A00A2040E941F1C0E94BC040E94ED190E9463
:10244A00B31B0E94B61B0E94B31B0E94491AE0E00C
:10245A00E0930002A0910002A43668F4EAE0F0E0FA
:10246A000E9498198AD0EAE0F0E00E94981985D073
:10247A000E94FF18EFCFE89442F80E94281CEA93C2
:10248A000E94BC040E94821B0E944D1AE894F2F832
:10249A00A0E037FCA1E0A13019F40E94451809F028
:1024AA0034C0E89437F8F2F80E94821BE091F901EF
:1024BA00E03031F4E1E0E093F901E0931F0225C036
:1024CA00E13051F4E2E0E093F9010E94271A0E94F8
:1024DA002F1A0E94AF1919C0E23011F4E1E013C0BB
:1024EA00EA3051F4EBE0E093F9010E94271A0E94C6
:1024FA002F1A0E94AF1909C0EB3011F4EAE003C0A9
:10250A00E43619F4E4E6E093F9010E94F919EB3F85
:10251A00A0E0FA07A0E06A07A0E07A072CF10E947F
:10252A0055190E94A204A091F901A03051F0A0E02F
:10253A0034FCA1E0A13029F0A0E035FCA1E0A130F3
:10254A0061F4E091FF01EA93E091FE01EA93E091E0
:10255A00FD01EA93E091FC0102C00E94281CEA9363
:10256A000E94BC040E944D1A08D00C94D209E8EECD
:10257A00F3E00E949819FBCFFFCFA0E020FCA1E076
:10258A00A13011F00C941813A3D30E942D19E091D5
:10259A002D02E03011F00C941113E0916101E13049
:1025AA0091F4E8E0E61561F4A0916301E091650118
:1025BA00AE0FA53010F4B7D202C00E942D1C02C083
:1025CA000E94311C29C0E0916101E83479F4E8E005
:1025DA00E61549F4A0916201A33010F435D302C084
:1025EA000E942D1C02C00E94311C16C0E09161019C
:1025FA00E63479F4EAE0E61549F4A0916201A330E1
:10260A0010F4E2D202C00E942D1C02C00E94311CAA
:10261A0003C0E1E0EA934FD3E89420F822F8662455
:10262A000E942D19BB2408952497EC81FD813097CF
:10263A0029F40E94911B0E94351C82C1AC81BD8184
:10264A00119729F40E949A1B0E94351C79C1AC810A
:10265A00BD81129749F40E94D8180E940F190E944E
:10266A0019190E94351C6CC1AC81BD81139711F0F8
:10267A000C94821343FC05C00E941E190E94351C4B
:10268A0005C0E0E0E883E983EA83EB830E946A18E5
:10269A0049F40E943A1CA0E0B0E080E090E40E9475
:1026AA00C11D02C00E943A1CE883F9836A837B83B6
:1026BA000E94651849F40E943A1CA0E0B0E080E844
:1026CA0090E40E94C11D02C00E943A1CE883F9836B
:1026DA006A837B830E94721849F40E943A1CA0E024
:1026EA00B0E080E091E40E94C11D02C00E943A1C41
:1026FA00E883F9836A837B8323C1AC81BD81A030DF
:10270A00E1E0BE0729F40E9423190E94351C18C172
:10271A00AC81BD81A130E1E0BE0729F40E942819ED
:10272A000E94351C0DC1AC81BD81A230E1E0BE071B
:10273A0029F4ACE0B0E00E943F1C02C1AC81BD812B
:10274A00A330E1E0BE0729F4A0E1B0E00E943F1CFB
:10275A00F7C0AC81BD81A430E1E0BE0729F4A4E151
:10276A00B0E00E943F1CECC0AC81BD81A530E1E025
:10277A00BE0729F40E94531B0E94351CE1C0AC819C
:10278A00BD81A030E2E0BE0729F4ACE1B0E00E94CE
:10279A003F1CD6C0AC81BD81A130E2E0BE0729F45E
:1027AA000E94581B0E94351CCBC0AC81BD81A2304F
:1027BA00E2E0BE0729F4A4E2B0E00E943F1CC0C0D8
:1027CA00AC81BD81A330E2E0BE0729F4A8E2B0E003
:1027DA000E943F1CB5C0AC81BD81A430E2E0BE07B7
:1027EA0029F40E948C1B0E94351CAAC0AC81BD81B1
:1027FA00A530E2E0BE0729F40E94671A0E94351C40
:10280A009FC0AC81BD81A630E2E0BE0729F40E94D8
:10281A00AA190E94351C94C0AC81BD81A730E2E0A0
:10282A00BE0729F4A8E3B0E00E943F1C89C0AC812E
:10283A00BD81A830E2E0BE0729F4ACE3B0E00E9413
:10284A003F1C7EC0AC81BD81A930E2E0BE0729F4FD
:10285A00A0E4B0E00E943F1C73C0AC81BD81AA30E5
:10286A00E2E0BE0729F4A4E4B0E00E943F1C68C07D
:10287A00AC81BD81AB30E2E0BE0729F4A8E4B0E048
:10288A000E943F1C5DC0AC81BD81AC30E2E0BE0756
:10289A0029F4ACE4B0E00E943F1C52C0AC81BD8177
:1028AA00AD30E2E0BE0729F4A0E5B0E00E943F1C8B
:1028BA0047C0AC81BD81AE30E2E0BE0729F4A4E591
:1028CA00B0E00E943F1C3CC0AC81BD81AF30E2E069
:1028DA00BE0729F4A8E5B0E00E943F1C31C0AC81D4
:1028EA00BD81A031E2E0BE0729F4ACE5B0E00E9468
:1028FA003F1C26C0AC81BD81A131E2E0BE0729F4AC
:10290A00A0E6B0E00E943F1C1BC0AC81BD81A23191
:10291A00E2E0BE0729F4A4E6B0E00E943F1C10C022
:10292A00AC81BD81A331E2E0BE0729F4A8E6B0E09C
:10293A000E943F1C05C0E0E0E883E983EA83EB8359
:10294A000E943A1C7FC1AC81BD81A030E1E0BE0784
:10295A0019F4A4E0B0E0E0C0AC81BD81A130E1E0AF
:10296A00BE0719F4A8E0B0E0D7C0AC81BD81A2309F
:10297A00E1E0BE0719F4ACE0B0E0CEC0AC81BD81A5
:10298A00A330E1E0BE0719F4A0E1B0E0C5C0AC8114
:10299A00BD81A430E1E0BE0719F4A4E1B0E0BCC0F7
:1029AA00AC81BD81A530E1E0BE0719F4A8E1B0E031
:1029BA00B3C0AC81BD81A030E2E0BE0719F4ACE13E
:1029CA00B0E0AAC0AC81BD81A130E2E0BE0719F433
:1029DA00A0E2B0E0A1C0AC81BD81A230E2E0BE07B6
:1029EA0019F4A4E2B0E098C0AC81BD81A330E2E062
:1029FA00BE0719F4A8E2B0E08FC0AC81BD81A43053
:102A0A00E2E0BE0719F4ACE2B0E086C0AC81BD8159
:102A1A00A530E2E0BE0719F4A0E3B0E07DC0AC81C6
:102A2A00BD81A630E2E0BE0719F4A4E3B0E074C0A9
:102A3A00AC81BD81A730E2E0BE0719F4A8E3B0E09B
:102A4A006BC0AC81BD81A830E2E0BE0719F4ACE3EB
:102A5A00B0E062C0AC81BD81A930E2E0BE0719F4E2
:102A6A00A0E4B0E059C0AC81BD81AA30E2E0BE0763
:102A7A0019F4A4E4B0E050C0AC81BD81AB30E2E00F
:102A8A00BE0719F4A8E4B0E047C0AC81BD81AC3000
:102A9A00E2E0BE0719F4ACE4B0E03EC0AC81BD810F
:102AAA00AD30E2E0BE0719F4A0E5B0E035C0AC8174
:102ABA00BD81AE30E2E0BE0719F4A4E5B0E02CC057
:102ACA00AC81BD81AF30E2E0BE0719F4A8E5B0E001
:102ADA0023C0AC81BD81A031E2E0BE0719F4ACE5A8
:102AEA00B0E01AC0AC81BD81A131E2E0BE0719F4A1
:102AFA00A0E6B0E011C0AC81BD81A231E2E0BE0720
:102B0A0019F4A4E6B0E008C0AC81BD81A331E2E0CB
:102B1A00BE0741F4A8E6B0E0E881F9816A817B81C9
:102B2A000E94FA1C8FC00E94421CE1E0EA930ED177
:102B3A00A0916501A13010F40C94E415E0916301B1
:102B4A00E03041F40E94721811F4E1E001C0E0E0C3
:102B5A00E0930002E0916301E13051F444FC04C0C7
:102B6A00E0910002EE5F02C0E0910002E0930002F1
:102B7A00E0916301E23051F445FC04C0E0910002A7
:102B8A00EC5F02C0E0910002E0930002E091630171
:102B9A00E33051F443FC04C0E0910002EC5F02C050
:102BAA00E0910002E0930002E0916501E150E093B8
:102BBA006501E0916301EF5FE0936301B9CFE091B2
:102BCA0000020E944C1C089524971A930A93E091DC
:102BDA006401EA83E0916501EB83E0916601EC838D
:102BEA00E0916701ED83009162011127102F002700
:102BFA00E0916301F0E00E0F1F1F1A930A93EC8114
:102C0A00FD816E817F810E94CF1C9DDE0E94421C45
:102C1A00E0916201EA939AD0E0916301EA9396D037
:102C2A00E0916401EA9392D0E0916501EA938ED033
:102C3A00E0916601EA938AD0E09167010E944C1CF8
:102C4A00198108812696089524970E94CC1EE09146
:102C5A006501A2E0EA9FF0010E2F10E00E94421CDB
:102C6A00E0916501A4E0EA9FF001EA936FD0209118
:102C7A0062013327322F2227E0916301F0E02E0F01
:102C8A003F1F3A932A93D0DCEC83FD836E837F83C4
:102C9A00013060F0DE0114960E94511CDE01159687
:102CAA000E94511C01501F5F1F5FF2CF65D00E9426
:102CBA00D11E28960895E0916001EA9347D0E091E9
:102CCA006101E068EA9342D0E8810E944C1C52C03C
:102CDA001A93E0E0E0932D020E942D19A8E6B0E0D5
:102CEA000E94E61C0E944E1D1E2FA09160011A1719
:102CFA0019F0E5E0E0932D0210E0EB2DE2501E17EB
:102D0A0040F4E12F0E941518E081EA9347D01F5F33
:102D1A00F4CF0E949D180E94A11C1E2FEB2DE1509A
:102D2A000E941518E0811E1719F0E2E0E0932D02C7
:102D3A001091F701EB2DE2500E941518E0811E1741
:102D4A0019F0E3E0E0932D0219910895E881EA93DE
:102D5A0025D0E881EA9301D00DC0F894EC2DF0E07B
:102D6A00E056FE4FA881A083C394E0E4EC1509F471
:102D7A00CC24789421960895E091F701EA93EDDF47
:102D8A000E949D180E94A11CEA93E7DF929A0E9472
:102D9A001918689421F80E942D1908951A930E940F
:102DAA009D18A981EA270E94581C10E0183098F44F
:102DBA000E949D18E17059F00E945D1CA091F701D4
:102DCA00B091F801E1E0F0EA0E94A21802C00E9464
:102DDA005D1C1F5FEBCF188122960895E991E030C0
:102DEA000AF4E19508952497E0E0E883E983EA8309
:102DFA00EFE3EB831A930A93EB85FC85EF3FAFEF82
:102E0A00FA0759F4EE81FF81FA93EA93EAE6F2E0CF
:102E1A00FA93EA930E940A18AEC0EF3FAFE7FA07A7
:102E2A0059F4EE81FF81FA93EA93EBE6F2E0FA9322
:102E3A00EA930E940A189FC0AC85AA2362F4E98526
:102E4A00FA856B857C850E941B1D0E94671C0E9467
:102E5A006C1CEDE2EC93A885A73010F0E6E0E88759
:102E6A001885E12F1150E03029F00E94731C0E944E
:102E7A000519F7CF0E94781C0E94C11D0E94671C89
:102E8A0010E00E941E190E9405190E94781C0E94D7
:102E9A00A21E50F00E9414190E949F1A0E940F1E2F
:102EAA000E9405191F5FF1CF103029F40E946C1C93
:102EBA00E0E3EC932FC0E12F1150E03059F10E946A
:102ECA00731CA0E0B0E080E09FE30E94C11D0E9455
:102EDA00CF1C0E94F3170E9405190E94781C0E94B9
:102EEA005D1E0E944E1D0E2F0E946C1CE02FE05D9D
:102EFA00EC93E02F0E941419FF27662777270E9478
:102F0A00871D0E940F1E0E947E1C0E946C1A0E943E
:102F1A00671CD1CFE885E03051F10E946C1CEEE2CB
:102F2A00EC93E885E150E887EF5F09F10E947E1C87
:102F3A000E949F1A0E940F1E0E94671CE985FA854B
:102F4A006B857C850E944E1D0E2F0E946C1CE02F03
:102F5A00E05DEC93E02F0E947E1CFF27662777270F
:102F6A000E94871D0E946C1A0E94671CDACFAE81EC
:102F7A00BF81E0E0EC93198108812D9608957B8149
:102F8A006A81F981E88177FB770F67FD7160972F76
:102F9A009E5781F078F0983190F4AA27BB278827AA
:102FAA0008948795B795A7959A95D1F7EA23FB23B5
:102FBA00682305C0E8947727EE27FF2766276F77EF
:102FCA00769508F4606877F9A991B99189919991F0
:102FDA00EA17FB076807790797FB08950E943A1CCE
:102FEA000E94CF1C0E94C4170E94351C19F40E942B
:102FFA003A1C09C0E6F7A881B9818A819B810E949F
:10300A001E190E946C1A24960895E991F991A991C2
:10301A00B991CD0105900D920020E1F7FC010895C8
:10302A00F0E0E05AFE4F0895ED2DF0E0E056FE4F35
:10303A00E081ECB90895A091E001AF5FA093E001AF
:10304A00A93C0895E091EB01F091EC016091ED014A
:10305A007091EE010895A0E025FCA1E0A03008954A
:10306A00689425F8E0E0E093F4010895A0E09999C6
:10307A00A1E0A1300895A0E08699A1E0A1300895C9
:10308A00A0E08799A1E0A1300895A091F401AF5F73
:10309A00A093F401A93C0895A0E034FCA1E0A0307B
:1030AA000895A0E035FCA1E0A0300895A0E046FC18
:1030BA00A1E0A1300895A0E047FCA1E0A130089565
:1030CA00A0E044FCA1E0A1300895A0E045FCA1E005
:1030DA00A1300895E12FF0E00895A0E043FCA1E0BB
:1030EA00A1300895A0E047FCA1E0A0300895A0E037
:1030FA0046FCA1E0A03008951078EC81EA930E9482
:10310A0036031E2B08951078EB81EA930E9436034A
:10311A001E2B08951078EA81EA930E9436031E2B2B
:10312A0008951078E981EA930E9436031E2B0895C8
:10313A00E091F701F091F8010895EA27FB27E0935F
:10314A00F701F093F8010895DE011296AE0FBF1F42
:10315A000895E02FF0E0DE011B960895E053E09316
:10316A00FC01E091FF01E0300895E0E2E093FF0105
:10317A00E091FE01E0300895A8E4B0E00E94E61C68
:10318A00A0E0B2E00E944E1DEC93E0910002E03014
:10319A000895A0910202AF5FA0930202089552DF40
:1031AA000E948F1C0895E0911502A3E0B2E0F0E0BE
:1031BA00EE0FFF1F0895E0911E02F0E0DE01169661
:1031CA00AE0FBF1F0895E0911E02A3E0B2E0F0E047
:1031DA00EE0FFF1FAE0FBF1F0D901C90E091000273
:1031EA00A3E0B2E0F0E0EE0FFF1FAE0FBF1F0E9498
:1031FA00C21C0895E0910002EF5FE0930002089577
:10320A00EA83FB836C837D830895EA81FB816C8169
:10321A007D810895AE0FBF1F0E94C21C0895AA8126
:10322A00BB818C819D810895662777270E94871D1F
:10323A000895E0E0F0E060E87FE30895A4E0B0E0FC
:10324A000E94E61C0895A8E0B0E00E94E61C0895DA
:10325A00EFEFFFEFE093F701F093F8010895A0EB89
:10326A00B1E00E94EE1CE093FA010895EBDEE093D0
:10327A002102F09322026093230270932402E1E078
:10328A00E0931F020895E6E7E093FF01E1E0E0938F
:10329A00FE01E0E0E093FD01E1E0E093FC01089526
:1032AA00E091FF01EA93E091FE01EA93E091FD01CA
:1032BA00EA93E091FC01EA9308950E94A204F0CFF8
:1032CA000E94BC04E0E0EA93EA93EA93EA93EA9361
:1032DA00EA93EA93EA930E94B203E0E0EA93EA935C
:1032EA00EA93EA93EA93EA93EA93EA930E942B0415
:1032FA00ECEDF5E0FA93EA930C94831CE093FE015B
:10330A00E0E0E093FD010895E093FC01C9CFE0936A
:10331A00FE01E2E0E093FD010895E093FE01E0E2A0
:10332A00E093FD010895FA93EA930C94831CE0E07C
:10333A00F0E060E070E00895E0932102F093220249
:10334A0060932302709324020895A4E3B0E00E94DC
:10335A00E61C0895E9ABFAAB6BAB7CAB0895A9A95F
:10336A00BAA98BA99CA90895E0E0F0E06AE774EC99
:10337A000E94A21E0895F3DFE0E0F0E068EC72EC30
:10338A000E94A21E0895EBDFE0E0F0E060E271EC3B
:10339A000E94A21E0895E3DFE0E0F0E060E271E43B
:1033AA000E94A21E0895DBDFE0E0F0E068EC72E420
:1033BA000E94A21E0895D3DFE0E0F0E06AE774E419
:1033CA000E94A21E0895E091FA01E093FB0108957C
:1033DA00E0E0EA93EA93EA930895E0E0EA93EA9355
:1033EA0008950E94B203F4CFA0912102B091220263
:1033FA008091230290912402D2CE0E94E61CA0E082
:10340A00B0E08AE794E40E940F1E0895E0E2E09398
:10341A00FC01E0911F02E2300895E093FF01EFE51D
:10342A00E093FE01E2E00895E0E7E093FF01EFE5B3
:10343A00E093FE010895E3E6E093FF01EFE5E093F0
:10344A00FE010895E0911F02A0E0B0E0F0E00E94C2
:10345A009C1C0895AE0FBF1F0E94E61C0895E9A99F
:10346A00FAA96BA97CA90E94CF1C0C94F504E1E08F
:10347A00EA93E0E0EA93B5CFE1E0EA93AECFE0E089
:10348A00EA93E1E0EA930895E0E0EA930C942B04CE
:10349A00D9DD52CFE9A5FAA56BA57CA5ADA5BEA538
:1034AA008FA598A90E940F1E0895A0E0B0E080EAB7
:1034BA0091E40E940F1EDF01CB01E0E0F0E661E635
:1034CA0075E40895A0E3B0E00E94E61C08950E9406
:1034DA00D91C0E94BA1D08950E945D1EEDA3FEA389
:1034EA006FA378A7EFCFADA1BEA18FA198A508952C
:1034FA00E0E0F0E060E870E40895E9A3FAA36BA3C2
:10350A007CA30895E0E0F0E060EA71E40895DF0149
:10351A00CB01E0E0F0E060EA70E4DECFE4DF07DF51
:10352A000E940F1E0895E9DFE0E0ED8FEE8FEF8F26
:10353A00E8A30895E0E0F0E060E271E40895A09164
:10354A002E02B0912F02809130029091310208959B
:10355A000E940F1EA9A1BAA18BA19CA10E94C11D04
:10356A00E0933202F093330260933402709335028F
:10357A000895A8E3B0E00E94E61CDF01CB01E0E079
:10358A00F0E068EC72E40E945D1EA0E0B0E080E822
:10359A009FE39DCFAD8DBE8D8F8D98A10E940F1E8A
:1035AA000895ACE3B0E00E94E61CDF01CB01E0E045
:1035BA00F0E068EC72E40E945D1EA0E0B0E080E8F2
:1035CA009FE30E94C11DA98DBA8D8B8D9C8D0E948F
:1035DA000F1E0895A0913202B091330280913402F5
:1035EA00909135020E94A21E0895ED89FE896F8985
:1035FA00788DF0CFACE1B0E00E94E61CDF01CB0190
:10360A00E0E0F0E068EC72E40E945D1EA0E0B0E049
:10361A0080E89FE35CCFE89444F8F0F8A4E1B0E0D6
:10362A000E94E61C0E94C21E0895E030A0E0FA073C
:10363A00A0E86A07AFE37A070895A0E5B0E00E9420
:10364A00E61C0E94C21E0895E989FA896B897C8961
:10365A00C1CFE89445F8F1F8A4E1B0E00E94E61C75
:10366A000E94C21E0895A4E5B0E00E94E61C0E94D2
:10367A00C21E0895A091EB01B091EC018091ED0179
:10368A009091EE010E94D61C22CF0E94E61CA0E077
:10369A00B0E088E494E40E940F1E0895A8E1B0E027
:1036AA000E94E61C0895A0E2B0E00E94E61C08957C
:1036BA00A4E1B0E00E94E61C0E94C21E0895E03018
:1036CA00A0E0FA07A0E06A07A0E47A070895A0E05C
:1036DA0032FCA1E0A1300895A091EF01B091F00170
:1036EA008091F1019091F2015ACDED3DA5E0FA07E2
:1036FA00A0E06A07A0E07A070895A4DCE093250217
:10370A00F093260260932702709328020895ACE290
:10371A00B0E00E94E61C0895E0912E02F0912F027B
:10372A0060913002709131020895E0913202F09175
:10373A00330260913402709135020895E0913602A5
:10374A00F091370260913802709139020E94CF1CC1
:10375A000E94F504A091FA01A1300895E1E0EA93EC
:10376A0037CEE0E0EA933DCEE1E0EA93E0E0EA9387
:10377A000895E1E0EA93EA932BCEFF27662777279D
:10378A000E94871D0E94CF1C0C94F504E093FD0152
:10379A0024CEE9A9FAA96BA97CA908950E94B11CB3
:1037AA000E2AA0911F020895E0E0E093FC01E1E0F7
:1037BA000895E0E0E093FF01EDE208950E94FA1C0B
:1037CA00A4E3B0E09FDE0E94FA1CE3E00895AFDDB7
:1037DA000E94FA1CA4E3B0E00895E091FA01A0EB7C
:1037EA00B1E00E940A1DEFCD0E94C11DB3CDB7DD25
:1037FA000E94C61E0895A8EDB0E0E0911F02F0E015
:10380A000E949C1C27CEE0E0E0930102E0930202B2
:10381A00E093200208959EDDEACFEDECFCEC6CEC1F
:10382A007DE30895A4E4B1E0E0911F02F0E00E9474
:10383A009C1C10CEE0E2EA93E3E0EA93E1E6EA9325
:10384A00EFEEEA930895E0E2EA93EA93EA930895A1
:10385A00E2E0EA930C946016E3E0EA930C946016B3
:10386A00E883F9836A837B830895E881F9816A8111
:10387A007B8108950E94E61CF3CFE0916001EA93F0
:10388A000E94AB16E0916101EA930C94AB16EA939D
:10389A000E94AB160C94C116EE27A10FBE1FEC9125
:1038AA00EA930C94AB16E093F701F093F8010895AC
:1038BA003FDCF595E795F7DFE091F801EF77E093C4
:1038CA00F8010895E987FA876B877C870895AE81A6
:1038DA00BF811196AE83BF8311970895A0DC9DDF47
:1038EA000E940F1E089591DCA985BA858B859C8557
:1038FA000895A985BA858B859C850895E991F991E2
:10390A00309639F080ED97E00197F1F7A895319755
:10391A00C9F70895EA1BFB0B680B790B0895F0951C
:10392A0060957095E195FF4F6F4F7F4F0895EE0FA9
:10393A00FF1FEE0FFF1F0895EF2FFF27E7FDFFEF91
:10394A000895FE2FFF0FFF0B6F2F7F2F08956F2F04
:10395A00660F660B762F0895EA17E1E009F0EE2765
:10396A000895EA17FB07E1E00CF4EE270895EA1739
:10397A00FB07E1E008F4EE270895ED91FC91119719
:10398A000895ED93FD936D937C9308950590F491BA
:10399A00E02D08957A936A93FA93EA9308956894C6
:1039AA0001C0E89401D0AFD0182E862F612D192EB0
:1039BA00972F712D1B2EBF2FF12D1A2EAE2FE12D11
:1039CA000895129602D0BF011297119602D0FE2FC7
:1039DA001197E199FECFFF93FFB7F894AEBBBFBB37
:1039EA00E09AEDB3FFBFFF91089507D012960F0139
:1039FA00FB0103D0F0011297089507D01196EF93B7
:103A0A00EF2F03D0EF9111970895E19B02C0A8957B
:103A1A00FCCF9FB7F894AEBBBFBBE09A8DB3E81753
:103A2A0019F0EDBBE29AE19A9FBF08953097604082
:103A3A00704009F070580895552342F4503811F433
:103A4A00E0FF04C03196691F791F6BF050E85727D1
:103A5A0011F45F93CDC05F3F31F0660F000C5795AC
:103A6A006795752F08955F9300200AF0CDC0C6C0F0
:103A7A0050E8192E1522880F991F9527550F8795FB
:103A8A0050E8072E0522660F771F7527550F679591
:103A9A000895689401C0E8945F93F2DF703818F0D3
:103AAA007F3F08F4A5C056E1571BAAF45195583038
:103ABA000EF4593030F0EFEFFFEF6FEF7FE777F951
:103ACA001AC077275523B9F0EE0FFF1F661F771F1D
:103ADA005A95D1F710C07727583028F0EF2FF62FD4
:103AEA00672F5850F9CF552331F076956795F7959A
:103AFA00E7955A95D1F700200AF411DF5F910895EE
:103B0A00689401C0E894309760407040B1F0002496
:103B1A0026F0772312F4009402DF172E7EE111209B
:103B2A0032F07A95EE0FFF1F661F111CF9CFEF2FA7
:103B3A00F62F612D5F938ADF5F9108954F93AF014E
:103B4A00FD01DA01AB01BC01CA01402D012C142E82
:103B5A004F910895EA0FFB1F681F0895E095F095AD
:103B6A006095EF5FFF4F6F4F08955F9381DF903845
:103B7A0071F150E8152604C05F937ADF903839F165
:103B8A00703821F1572F591B13F112F4D7DFFACFEE
:103B9A00583118F0AA27BB278827583028F0AB2FAE
:103BAA00B82F88275850F9CF552329F08695B7950D
:103BBA00A7955A95D9F7502D512562F0CBDF38F4E5
:103BCA006795F795E795739513F41EC0B7DF3EDF47
:103BDA005F910895EA1BFB0B680B51F010F40094F7
:103BEA00BDDF6623A2F3EE0FFF1F661F7A95CBF7A0
:103BFA00EE27FF27662777275F910895EFEFFFEFFC
:103C0A006FE77FEF5F910895EFEFFFEF6FE77FE7D1
:103C1A005F9108955F932CDF703851F3903841F328
:103C2A0001240894791F23F41CF300203AF3ECCF03
:103C3A000F921F932F933F934F9311272227992770
:103C4A00689FA0018F9F302D410D591F6B9F300D2A
:103C5A00411D591F8E9F27D0BF9F25D06A9F23D011
:103C6A00BE9F1DD0AF9F1BD0AE9F110D291F391FBC
:103C7A00491F591FE32FF42F652F522F4F913F9160
:103C8A002F911F910F9066232AF0550FEE1FFF1FE9
:103C9A00661F02C073954BF2CFDE5F910895100D37
:103CAA00211D391F02C0200D311D491F591F0895BA
:103CBA005F93DEDE703821F411200AF49FCFA4CF7F
:103CCA00903809F495CF01240894970B1BF4D4F388
:103CDA000020F3CF792F1F932F933F934F931124F3
:103CEA001127222733274427552790E2AE17BF070B
:103CFA008607410730F0AE1BBF0B860B410B0894B9
:103D0A0001C08894551F221F331F111CAA1FBB1FF5
:103D1A00881F441F9A9551F7F901612D4F913F91E0
:103D2A002F911F91662332F0550FEE1FFF1F661F5A
:103D3A007A9543F281DE5F91089599239AF0772369
:103D4A0042F0971748F029F4AE17BF07860720F00C
:103D5A0031F0989488940895989408940895189442
:103D6A00889408957723C2F7971798F3A9F7EA1763
:103D7A00FB07680788F399F3ECCF309760407040EF
:103D8A00089500240A160B060806090608953A93B0
:103D9A002A931A930A9308953B812A8119810881EB
:103DAA000895AC0FBD1F05900D928A95E1F708950D
:00000001FF
