:0C0000000C9446010C9400000C940000CD
:10000C000C9415030C9409020C9406020C94070230
:10001C000C9408020C94FF010C94C6010C94000083
:10002C000C9476010C9400000C94AB010C94000021
:10003C000C9400000C9400000C9400000C94000034
:10004C000C94FE010C9400000000C0C1C181014061
:10005C00C30103C00280C241C60106C00780C7416C
:10006C000500C5C1C4810440CC010CC00D80CD413C
:10007C000F00CFC1CE810E400A00CAC1CB810B400C
:10008C00C90109C00880C841D80118C01980D941DC
:10009C001B00DBC1DA811A401E00DEC1DF811F406C
:1000AC00DD011DC01C80DC411400D4C1D58115407C
:1000BC00D70117C01680D641D20112C01380D3418C
:1000CC001100D1C1D0811040F00130C03180F1411C
:1000DC003300F3C1F28132403600F6C1F78137406C
:1000EC00F50135C03480F4413C00FCC1FD813D403C
:1000FC00FF013FC03E80FE41FA013AC03B80FB410C
:10010C003900F9C1F88138402800E8C1E98129405B
:10011C00EB012BC02A80EA41EE012EC02F80EF416B
:10012C002D00EDC1EC812C40E40124C02580E5417B
:10013C002700E7C1E68126402200E2C1E38123408B
:10014C00E10121C02080E041A00160C06180A1419B
:10015C006300A3C1A28162406600A6C1A78167406B
:10016C00A50165C06480A4416C00ACC1AD816D403B
:10017C00AF016FC06E80AE41AA016AC06B80AB410B
:10018C006900A9C1A88168407800B8C1B9817940DB
:10019C00BB017BC07A80BA41BE017EC07F80BF416B
:1001AC007D00BDC1BC817C40B40174C07580B5417B
:1001BC007700B7C1B68176407200B2C1B38173408B
:1001CC00B10171C07080B041500090C1918151401B
:1001DC00930153C052809241960156C0578097416B
:1001EC00550095C1948154409C015CC05D809D413B
:1001FC005F009FC19E815E405A009AC19B815B400B
:10020C00990159C058809841880148C0498089415A
:10021C004B008BC18A814A404E008EC18F814F406A
:10022C008D014DC04C808C41440084C1858145407A
:10023C00870147C046808641820142C0438083418A
:10024C00410081C18081404000000000000000009E
:10025C00000000000000000000000000FF0000FF94
:10026C0001002D4E414E00494E4600000400020094
:10027C00540204000700680201003A026C020000FC
:10028C00F894EE27ECBBF1E0FBBFEBBFE5BFF8E168
:10029C00F1BDE1BD8DE0A2E0BB27ED938A95E9F7B6
:1002AC0080E094E0A0E6ED930197E9F7E8E7F2E04F
:1002BC0085919591009761F0A591B5910590159058
:1002CC00BF01F00105900D920197E1F7FB01F0CF12
:1002DC00EFE5EDBFE4E0EEBFC0E6D1E00C945C07C7
:1002EC00AA93EA93FA93EFB7EA931A930A931BB182
:1002FC000CB1E12FEC7161F4A0E021FCA1E0A03085
:10030C0029F4A0E020FCA1E0A03009F001C001C05C
:10031C0006C0992019F4689422F8BB24982CEB2D74
:10032C000E9429180083B394E0E4BE1608F0BB24A5
:10033C006394E0E46E1608F0662409911991E99132
:10034C00EFBFF991E991A9911895EA93FA93EFB758
:10035C00EA9321FE10C0D394E0E4DE1608F0DD240D
:10036C00CD1419F00E942D1806C0E89421F820F83D
:10037C0022F892986624E991EFBFF991E9911895CA
:10038C00AA93EA93EFB7EA93EFE6E2BFA89523FEB0
:10039C0002C026FC01C009C024FE03C0959AE89453
:1003AC0002C09598689424F814C025FE11C00E94D0
:1003BC00341828F0E89425F8E0E0E093E00124FEFE
:1003CC0003C0959AE89402C09598689424F801C0EB
:1003DC00959825FE08C00E94341828F0E89425F85A
:1003EC00E0E0E093E001E991EFBFE991A991189564
:1003FC001895EA93E5E0EDBDE1E0ECBDE9911895C7
:10040C001895189518956A937A93AA93BA93EA93C8
:10041C00FA93EFB7EA931A93EEE5E4BD78940E9451
:10042C003B18EF5FFF4F6F4F7F4FE093EB01F09363
:10043C00EC016093ED017093EE01992029F422FEFA
:10044C0002C0689420F801C09A94989911C06894DD
:10045C0027F8A0E033FCA1E0A03019F40E94441866
:10046C0009F004C0689437F80E94491868940CC0CD
:10047C00999B07C0869B05C0879B03C00E944F18A1
:10048C0008F403C0E89427F833F899990FC06894DE
:10049C0030F80E94561819F40E94441809F004C050
:1004AC00689440F80E94491868940CC0989B07C047
:1004BC00869B05C0879B03C00E944F1808F403C09D
:1004CC00E89430F834F886990FC0689431F80E949B
:1004DC005B1819F40E94441809F004C0689441F8A0
:1004EC000E94491868940CC0999B07C0989B05C042
:1004FC00879B03C00E944F1808F403C0E89431F89E
:10050C0035F8879916C0689432F836FC0CC042F85E
:10051C0025F80E943B18E093EF01F093F0016093F3
:10052C00F1017093F201689436F8E89446F847F8B4
:10053C0003C0E89432F836F8A5EFB1E0ED91FD91E7
:10054C003196FE93EE93E13DA7E0FA072CF0E0E044
:10055C00E093F501E093F601A091F501B091F6015D
:10056C00AC32E1E0BE0764F411E0E89423F846FCF9
:10057C0002C047FE02C0689401C0E89423F807C08B
:10058C0010E044FC02C045FE02C0689423F8EFEF73
:10059C00EBBBE5B3E770E5BBE091F301E43059F454
:1005AC00E0E0E093F301AB9AA39A0E946018EF513C
:1005BC00FE4FE08129C0E33041F4E4E0E093F30125
:1005CC00AC9AA49AA3EEB1E01BC0E23041F4E3E094
:1005DC00E093F301AD9AA59AA5EEB1E011C0E1301C
:1005EC0041F4E2E0E093F301AE9AA69AA7EEB1E0F3
:1005FC0007C0E1E0E093F301AF9AA79AA9EEB1E04E
:10060C00EE27A10FBE1FEC91EBBB1991E991EFBF47
:10061C00F991E991B991A9917991699118951895E8
:10062C00E881E03011F4E0E475C0E13011F4E9E761
:10063C0071C0E23011F4E4E26DC0E33011F4E0E398
:10064C0069C0E43011F4E9E165C0E53011F4E2E190
:10065C0061C0E63011F4E2E05DC0E73011F4E8E788
:10066C0059C0E83011F4E0E055C0E93011F4E0E194
:10067C0051C0E03211F4EFE74DC0EF3511F4E7E76C
:10068C0049C0E33D11F4E1E145C0E13611F4E8E085
:10069C0041C0EF3E11F4E8E43DC0E33611F4E6E46A
:1006AC0039C0E03711F4ECE035C0ED3211F4EFE372
:1006BC0031C0E23711F4EFE22DC0E43711F4E7E07A
:1006CC0029C0E23611F4E3E025C0E43611F4E1E28E
:1006DC0021C0E53611F4E6E01DC0E63611F4EEE07B
:1006EC0019C0E73611F4E2E415C0E83611F4E5E67A
:1006FC0011C0EB3611F4EAE00DC0E93611F4EFE469
:10070C0009C0EC3611F4E7E405C0E63711F4E1E476
:10071C0001C0E2E7E8833EC11A9343FE02C0E0E069
:10072C00ED83EC81E03021F41091E101106803C0FD
:10073C001091E1011F771093E101EB81E03021F47E
:10074C001091E301106803C01091E3011F7710931F
:10075C00E301EA81E03021F41091E501106803C057
:10076C001091E5011F771093E501E981E03021F448
:10077C001091E701106803C01091E7011F771093E7
:10078C00E701A885A03029F4A0E043FCA1E0A0304B
:10079C0009F004C0E091E901E16003C0E091E901D6
:1007AC00EE7FE093E901AF81A03029F4A0E045FC95
:1007BC00A1E0A03009F004C0E091E901E26003C0BF
:1007CC00E091E901ED7FE093E901AE81A03029F4DD
:1007DC00A0E044FCA1E0A03009F004C0E091E901E4
:1007EC00E46003C0E091E901EB7FE093E901ED8166
:1007FC00E03021F4E091E901E86003C0E091E90107
:10080C00E77FE093E90173C01A9343FE02C0E0E076
:10081C00ED83EC81E03021F41091E201106803C00B
:10082C001091E2011F771093E201EB81E03021F48B
:10083C001091E401106803C01091E4011F7710932C
:10084C00E401EA81E03021F41091E601106803C064
:10085C001091E6011F771093E601E981E03021F455
:10086C001091E801106803C01091E8011F771093F4
:10087C00E801A885A03029F4A0E043FCA1E0A03059
:10088C0009F004C0E091EA01E16003C0E091EA01E3
:10089C00EE7FE093EA01AF81A03019F40E94631857
:1008AC0009F004C0E091EA01E26003C0E091EA01C2
:1008BC00ED7FE093EA01AE81A03019F40E94681834
:1008CC0009F004C0E091EA01E46003C0E091EA01A0
:1008DC00EB7FE093EA01ED81E03021F4E091EA0155
:1008EC00E86003C0E091EA01E77FE093EA01188138
:1008FC00299608951A931091E1010E946D18109396
:10090C00E1011091E3010E9474181093E30110911E
:10091C00E5010E947B181093E5011091E7010E94FC
:10092C0082181093E70119C01A931091E2010E94EA
:10093C006D181093E2011091E4010E947418109349
:10094C00E4011091E6010E947B181093E6011091CE
:10095C00E8010E9482181093E801188125960895E9
:10096C000E9489180E949F1EDF01E881F0E0AE27EB
:10097C00BF27EFEFF0E0EA23FB23A4E5B0E0EE0F96
:10098C00FF1FEA0FFB1F0E94FD1EF091F701E0E034
:10099C000E948E182196089562970E94651F30E080
:1009AC00AE89BF89888D998DE0E0F0EC69E774EC35
:1009BC000E94691E20F4EE8BFF8B688F798FAE89B5
:1009CC00BF89888D998DE0E0F0EC69E774E40E94B2
:1009DC00691E09F010F40C94F704EE8BFF8B688FF2
:1009EC00798FEE89FF89688D798D0E940F1FE5E064
:1009FC00EA93FE013996FA93EA930E940B1710E0E2
:100A0C0019304CF40E9460180E949518AC91AE32CB
:100A1C0011F01F5FF5CF04E0103014F000300CF42F
:100A2C000FC00E949A18EA0FFB1F0F010E9460185A
:100A3C000E949518EC91D001EC9311500150ECCF21
:100A4C00E3E0E01B1E2F003044F00E949A18AE0F1A
:100A5C00BF1FE0E3EC930150F6CF04E0193014F41F
:100A6C0009300CF00FC00E949A18EA0FFB1F0F01FF
:100A7C000E9460180E949518EC91D001EC931F5FB6
:100A8C000F5FECCF093044F40E949A18AE0FBF1FD1
:100A9C00E0E3EC930F5FF6CFA091FA01A13039F5AA
:100AAC00AD85AD3211F4EDE207C0ED85E03011F407
:100ABC00E0E002C0ED85E053E093FF01EE85E053EA
:100ACC00E093FE01EF85E053E093FD01E8890E947D
:100ADC009F1869F40E94A61851F4E0E2E093FE011D
:100AEC00E091FD01E03019F4E0E2E093FD01A0910A
:100AFC00FA01A23051F5AE85AD3211F4EDE207C02A
:100B0C00EE85E03011F4E0E002C0EE85E053E093B6
:100B1C00FF01AF85AD3211F4EDE207C0EF85E03097
:100B2C0011F4E0E002C0EF85E053E093FE01E889A8
:100B3C00E053E093FD01EA890E949F1831F40E9472
:100B4C00A61819F4E0E2E093FE01A091FA01A3309B
:100B5C0039F5AF85AD3211F4EDE207C0EF85E03029
:100B6C0011F4E0E002C0EF85E053E093FF01A889A7
:100B7C00AD3211F4EDE207C0E889E03011F4E0E0A9
:100B8C0002C0E889E053E093FE01EA89E053E09368
:100B9C00FD01EB890E949F1819F4E0E2E093FF013C
:100BAC00A091FA01A43021F5A889AD3211F4EDE23F
:100BBC0007C0E889E03011F4E0E002C0E889E053B6
:100BCC00E093FF01AA89AD3211F4EDE207C0EA8986
:100BDC00E03011F4E0E002C0EA89E053E093FE015A
:100BEC00EB89E053E093FD01EC89E053E093FC01C9
:100BFC000E946A1F6A9608951A930A93C498E1E5B5
:100C0C00EDB90E94AD1851F0E13011F4E9EB07C0D9
:100C1C00E23021F0E33011F4E9EB01C0E1EBEFB984
:100C2C00779BFECF0FB11127E0E0EFB9102F002713
:100C3C00779BFECFEFB1F0E00E0F1F1FC49AF801A7
:100C4C00099119910895A0912002A53140F00E94BC
:100C5C00BA18A83618F0E6E6E093020246C0A09156
:100C6C000202A53668F00E94BA18AB3640F0E6E6F0
:100C7C00E0930202E0912002EF5FE093200235C086
:100C8C00A0912902B0912A0280912B0290912C0202
:100C9C000E94C018E333A0E0FA07A0E06A07A0E0C6
:100CAC007A0724F0A0910102A13008F41EC00E9422
:100CBC003B18E0932902F0932A0260932B02709365
:100CCC002C02A0910102A150A0930102A43168F45E
:100CDC00E8E2E09301020E94BA18A53030F0E6E693
:100CEC00E0930202EAEFE093010208952D971A9324
:100CFC000A93A0911502AF5FA0931502A93018F0CA
:100D0C00E0E0E09315020E94C418EA0FFB1FFF936A
:100D1C00EF9372DFAF91BF91ED93FC9319E0E0E09C
:100D2C00E0931E02A0911E02A93010F00C94DA067A
:100D3C000E94CC18E0E0EC93E0930002A09100023A
:100D4C00A930D8F4E0911E02EA17A1F00E94D41841
:100D5C000E161F0628F40E94CC18EC91E150EC936F
:100D6C000E94D418E015F10528F40E94CC18EC91DF
:100D7C00EF5FEC930E94EB18E1CF0E94CC18EC9142
:100D8C00EA930E940617E11748F40E94CC18EC91E4
:100D9C00EA930E9406171E2F00911E02E0911E027C
:100DAC00EF5FE0931E02BECFA0E4B0E00E94261FCE
:100DBC000E94F1180E94F6180E945B1F31F4EFE6B6
:100DCC00F2E163E87AE30E94F1180E94F6180E949F
:100DDC00FB180E94241E0E94F118E02FA3E0B2E041
:100DEC00F0E0EE0FFF1F0E9400190E9405190E94EF
:100DFC000A190E94D61D7F936F93FF93EF930E9465
:100E0C0005190E940F190E947F1DA0911A02B09122
:100E1C001B0280911C0290911D020E94D61DAF9165
:100E2C00BF918F919F910E94861DE0931A02F093BF
:100E3C001B0260931C0270931D02198108812F966E
:100E4C00089565917491E62FF72F22960895EFEF90
:100E5C00EBBBEABBE0E0E8BBE3EBE7BBEBEFE5BBEE
:100E6C00E8EFE4BBE3ECE2BBEEE3E1BBE3E0E3BFC2
:100E7C00EFE6E2BFE0E0ECBFE2BDE4E0E5BDEEE5AD
:100E8C00E4BDE0E0E3BDE5BFE4BFEFEFE9BFE0E8C0
:100E9C00E8B9E0E0E0BFE2E5EDB9E0E0EEB9EFE1A2
:100EAC00E1BDEFE0E1BDECE38E2E0895EF972797BF
:100EBC008FE0A9E0B0E0E8E5F2E00E946F1F0E942D
:100ECC001419EE8FFF8F68A379A30E941919EA8F6A
:100EDC00FB8F6C8F7D8F50E040E00E941E190E94AA
:100EEC002519B5DFF894AD85BE85EEEFFFEF0E94B6
:100EFC00BA1E0E2EAB85BC85EEEFFFE30E94B41E2E
:100F0C00E029C1F0EB85FC85FA93EA939ADFED8733
:100F1C00FE870E949F1EE98FED85E88FE98DEA938D
:100F2C001FDDE88DEA931CDDEB85FC853296EB87A3
:100F3C00FC87D9CF0E948918A1EBB1E00E94421F17
:100F4C00E0E0E093000278940E942C19939AE0E080
:100F5C00E987EA87A985BA85129714F00C9464087E
:100F6C000E9439190E9446190E9453190E94561961
:100F7C000E9462190E9475190E947A190E94691EBA
:100F8C0068F0E1E0E093FF01E0E00E948119E0E00D
:100F9C000E9487190E948A19E0E027C00E947519E7
:100FAC000E9492190E947A190E9499190E9475192F
:100FBC000E9492190E94A1190E94A7190E947519EA
:100FCC000E9492190E94A1190E94B3190E947519CE
:100FDC000E9492190E94A119EAE0F0E00E94D81E2A
:100FEC000E9487190E948A19E1E0EA930E94BF19B6
:100FFC0093DB0E94C4190E9446190E94561904DC06
:10100C00E3E6E093FF01E2E7E093FE01E3E6E09321
:10101C00FD01E0E20E9487190E9453190E945619A3
:10102C000E946219E3E0E093FF01E3E60E94CA1913
:10103C00E1E00E9487190E9453190E9456190E94E0
:10104C006219E0E2E093FF010E94D0190E94871917
:10105C000E94531969DCA1EBB1E00E942A1F0F0119
:10106C00A3EBB1E00E942A1FE015F10551F4E0E07A
:10107C00E093FF01EBE60E94D019E093FC01E1E064
:10108C000DC0E6E6E093FF01E1E6E093FE01E9E640
:10109C00E093FD01ECE6E093FC01E0E0EF8B0E94B5
:1010AC0046190E94531940DCECEDF5E00E94D6196C
:1010BC00E985FA853196E987FA874CCFC8DEE0E0FE
:1010CC00E0932102E0932202E0932302E0932402B6
:1010DC00F8949398AF89A13011F00C94E912A0E028
:1010EC009899A1E0A03079F4A0E09999A1E0A03002
:1010FC0051F4A0E08699A1E0A03029F4A0E08799F2
:10110C00A1E0A03009F001C0EACFA0910002A43602
:10111C00D8F4A0E09899A1E0A03049F4A0E0879918
:10112C00A1E0A03021F4999B02C0869901C004C0B3
:10113C00E0910002EF5F01C0E0E0E0930002E4E127
:10114C00F0E00E94D619E1CF939A0E94DA190E941E
:10115C00DF19ADADAA23AAF40E94E4190E94E91983
:10116C0018F0E1E0E093FA010E94F01918F0E2E0C7
:10117C00E093FA010E94F81918F0E3E0E093FA0109
:10118C0015C00E94001A10F4E4E00EC00E94081A68
:10119C0010F4E3E009C00E94101A10F4E2E004C05D
:1011AC000E94101A18F0E1E0E093FA010E94181A5C
:1011BC0078940E942C190E94BF190E94BF190E949A
:1011CC001D1A0E94211A0E94BF190E941D1A0E940A
:1011DC000A040E94241A7F936F93FF93EF93A4E465
:1011EC00B0E00E94261F0E949219AF91BF918F917F
:1011FC009F910E94161F0E94691E10F00C94BA0950
:10120C000E942D1A21F4E3ED0E94341A1BC0E33026
:10121C0011F4E3E011C0E43021F4E3E00E94341A4D
:10122C0011C0E53019F40E943B1A0CC0E63019F4D9
:10123C000E94421A07C0E3EDE093FF01EFE5E09353
:10124C00FE01E1E0E093FD010E9446190E94531952
:10125C000E9456190E94211A0E94BF190E941D1A41
:10126C000E940A04E4EFF1E00E94D6190E94491A88
:10127C000E94511A0E94DF19E0911F02E23011F412
:10128C00E3E01CC0E33029F4E4E0E0931F02E1E06A
:10129C0019C0E43029F4E5E0E0931F02E1E012C04C
:1012AC00E53029F4E6E0E0931F02E1E00BC0E63004
:1012BC0021F4E1E0E0931F0205C0E2E0E0931F029D
:1012CC00E091FB01E093FA010E94561A0E94461924
:1012DC000E9453190E949A04A091FA01A13059F46A
:1012EC000E94BF190E94BF190E941D1A0E94211A48
:1012FC00E0E0EA932DC0A091FA01A23051F40E94D3
:10130C00BF190E94BF190E945E1A0E94BF19E1E02A
:10131C0023C0A091FA01A33061F40E94BF190E946E
:10132C001D1A0E94631A0E94211A0E941D1AE1E0E4
:10133C0011C0A091FA01A43091F40E94BF190E942F
:10134C00661A0E94BF190E94211AE0E0EA93E1E0BC
:10135C00EA93E0E0EA93E0E0EA930E946B1AE4EF90
:10136C00F1E00E94D61935CFE0E0E0BDEFE5E9B938
:10137C00E8EDEAB9E6E8E0BDE2E0EBB90E941E193F
:10138C00939AE89433F834F835F836F837F840F88F
:10139C0041F87894E0E0E093F901E0931602E093D1
:1013AC001702E0931802E09319020E946F1AA8E545
:1013BC00B0E00E94261FEAABFBAB6CAB7DAB0E948E
:1013CC0025190E94181AE89421F8BB24DD24CC249A
:1013DC00A8958CDCEEABFFAB68AF79AF0E94AD1873
:1013EC0029F40E94791A0E94841A2FC0E13079F4F2
:1013FC000E94791AA0E0B0E080EA90E40E94D61D29
:10140C00DF01CB01E0E0F0E661E675E41EC0E230FE
:10141C0029F40E94791A0E94841A17C0E33039F417
:10142C000E94791AA0E0B0E080E291E406C00E942C
:10143C00791AA0E0B0E080EA90E40E94D61DDF01AA
:10144C00CB01E0E0F0EB66E675E40E94241EE0932D
:10145C002E02F0932F0260933002709331020E949F
:10146C00AD1889F50E94DA197F936F93FF93EF9370
:10147C000E94911AAF91BF918F919F910E94961AE1
:10148C00DF01CB01E0E0F0E060E871E40E949B1A20
:10149C007F936F93FF93EF930E94A21A0E94A71A57
:1014AC000E94D61DAF91BF918F919F910E94961A69
:1014BC000E94AC1A0E94A71AEEA3FFA368A779A7F3
:1014CC000E94B11A8FC0E130D9F40E94DA197F93CF
:1014DC006F93FF93EF930E94911AAF91BF918F91ED
:1014EC009F910E94961A0E94B61A7F936F93FF9356
:1014FC00EF930E94BD1AAF91BF918F919F9168C0DD
:10150C00E23029F50E94DA197F936F93FF93EF93E2
:10151C000E94911AAF91BF918F919F910E94961A40
:10152C00DF01CB010E94B11A0E949B1A7F936F932B
:10153C00FF93EF930E94BD1AAF91BF918F919F9132
:10154C000E94961A0E94C51A0E94B11A4BC0E33031
:10155C0029F50E94DA197F936F93FF93EF930E9402
:10156C00911AAF91BF918F919F910E94961ADF01B2
:10157C00CB010E94CC1A0E949B1A7F936F93FF930E
:10158C00EF930E94BD1AAF91BF918F919F910E94D2
:10159C00961A0E94C51A0E94CC1A24C00E94DA190D
:1015AC007F936F93FF93EF930E94911AAF91BF912A
:1015BC008F919F910E94961A0E94B61A7F936F93F7
:1015CC00FF93EF930E94BD1AAF91BF918F919F91A2
:1015DC000E94191F0E947F1D0E94C51AE0E0F0E0D6
:1015EC0060EA70E4EAA3FBA36CA37DA3EEA5FFA5C0
:1015FC0068A979A90E94D11A0E94DA1A0E94EB1AE2
:10160C000E94FC1A0E94D11A0E94691E58F4689418
:10161C0043F80E94EB1A0E94FC1A0E94A21A0E9424
:10162C00DA1A13C00E94031B0E941C1B09F010F451
:10163C000C94290B689443F80E94031B0E94A21A75
:10164C000E94DA1A02C0E89443F844FE02C046FC39
:10165C0001C031C0E0E036FCE1E0E13059F50E9418
:10166C00271B09F010F40C944C0B689444F80E945E
:10167C0014197F936F93FF93EF930E942C1BAF91E0
:10168C00BF918F919F910E94D61D0EC00E943D1B51
:10169C0039F00E94471B19F40E944F1B09F002C03D
:1016AC00E89446F80E941419EE8FFF8F68A379A373
:1016BC00E89436F829C00E94271B09F010F40C940A
:1016CC00780B689444F80E9414197F936F93FF93DE
:1016DC00EF930E942C1BAF91BF918F919F910E9411
:1016EC00D61D0EC00E943D1B39F00E94471B19F4F9
:1016FC000E944F1B09F002C0E89446F80E9414198E
:10170C00EE8FFF8F68A379A345FE02C047FC01C092
:10171C0031C0E0E036FCE1E0E13059F50E94561BA7
:10172C0009F010F40C94AB0B689445F80E9419194D
:10173C007F936F93FF93EF930E942C1BAF91BF91FC
:10174C008F919F910E94D61D0EC00E945B1B39F099
:10175C000E94471B19F40E94651B09F002C0E89413
:10176C0047F80E941919EA8FFB8F6C8F7D8FE894D4
:10177C0036F829C00E94561B09F010F40C94D70BB4
:10178C00689445F80E9419197F936F93FF93EF9318
:10179C000E942C1BAF91BF918F919F910E94D61DDF
:1017AC000EC00E945B1B39F00E94471B19F40E946B
:1017BC00651B09F002C0E89447F80E941919EA8FDA
:1017CC00FB8F6C8F7D8F46FE02C0C09A01C0C09803
:1017DC0047FE02C0C19A01C0C198F0FE1FC0FE01B5
:1017EC00EE5BFF4F0190119061917081F0010E94AE
:1017FC006C1B7F936F93FF93EF93ACE0B0E00E9470
:10180C00771BAF91BF918F919F910E94691E09F038
:10181C0010F40C94130C689446F82BC044FE29C0A9
:10182C000E94801B0E94471B29F40E94851B0E946A
:10183C00471B09F003C0689452F826F80E948A1BD3
:10184C0059F00E94471B39F4A4E2B0E00E94261F15
:10185C000E94471B09F00DC00E943B180E944C1DB2
:10186C00DE01AE5BBF4FED93FD936D937C9368945B
:10187C00F0F8A0E044FCA1E0A03029F4A0E045FC85
:10188C00A1E0A03009F025C00E94681831F046FE96
:10189C0003C00E944F1B09F00AC00E94631831F06C
:1018AC0047FE03C00E94651B09F001C001C003C0C4
:1018BC00E89452F826F8A0E050FCA1E0A03029F4FE
:1018CC00A0E051FCA1E0A03009F003C0E89452F86C
:1018DC0026F80E94801B0E945B1F11F4E89426F8E6
:1018EC00F1FE1FC0FE01E25CFF4F0190119061916F
:1018FC007081F0010E946C1B7F936F93FF93EF93A9
:10190C00A0E1B0E00E94771BAF91BF918F919F91A6
:10191C000E94691E09F010F40C94960C689447F818
:10192C002BC045FE29C00E94801B0E94471B29F436
:10193C000E94851B0E94911B09F003C0689452F809
:10194C0026F80E948A1B59F00E94471B39F4A8E222
:10195C00B0E00E94261F0E94471B09F00DC00E9498
:10196C003B180E944C1DDE01A25CBF4FED93FD9312
:10197C006D937C936894F1F8A0912502B0912602A6
:10198C0080912702909128020E94C0187F936F9338
:10199C00FF93EF93ACE4B0E00E94261F0E949219D3
:1019AC00AF91BF918F919F910E94161F0E94691E4B
:1019BC0009F010F40C94E70CE0E0E093F901E894E2
:1019CC00F2F842FE04C0A091F901A03009F004C065
:1019DC00E89442F86894F3F8F3FE07C032FE05C0B1
:1019EC00A0E027FCA1E0A03009F00CC00E94991BDC
:1019FC000E94A21B3CF0EAE0E093F9010E94AA1BB2
:101A0C00E894F3F8F3FE08C032FE06C027FE04C0CB
:101A1C00999B02C0869901C006C00E94991B0E9426
:101A2C00A21B0CF04BCBE091F901E03011F00C94BF
:101A3C009D0DE1E0E0931F02E091FB01E093FA01C0
:101A4C000E94681831F046FE03C00E944F1B09F03B
:101A5C000AC00E94631831F047FE03C00E94651B48
:101A6C0009F001C001C025C00E94B41B0E945B1F7D
:101A7C0019F40E94B91B15C00E94B41B0E94911B43
:101A8C0071F40E94C4180E940019A6E3B2E00E94EF
:101A9C000A190E94F81EE1E0E093FA010AC00E94C4
:101AAC00C21BE0933602F0933702609338027093B6
:101ABC0039020E94CB1B51F40E94BF190E94DB1B00
:101ACC000E94DE1BE1E0EA93E0E02AC0A091FA015B
:101ADC00A23051F40E94BF190E94631A0E945E1A30
:101AEC000E94631AE1E020C0A091FA01A33061F4D6
:101AFC000E94BF190E94E11B0E94631A0E94211AC6
:101B0C000E94E11BE1E00EC0A091FA01A43079F42F
:101B1C000E94BF190E94E61B0E94211AE1E0EA9381
:101B2C00EA93E0E0EA93E0E0EA930E946B1AA0915A
:101B3C00F901A13011F00C94EB0DE0911F020E9401
:101B4C00EA1B0E942D1A51F4E3EDE093FF01EFE53F
:101B5C000E94CA190E94661AE0E02AC0E33011F410
:101B6C00E3E01DC0E43051F4E3E0E093FF01EFE566
:101B7C000E94CA190E94661AE0E01AC0E53031F4DE
:101B8C000E943B1A0E94F31BE0E012C0E63031F4D5
:101B9C000E94421A0E94F31BE0E00AC0E3EDE093BE
:101BAC00FF01EFE5E093FE01E1E00E94F31BE1E0B1
:101BBC00EA930E94DB1BE0E0EA930E9492030E94EE
:101BCC00BF190E94DB1B0E946B1AA091F901A23075
:101BDC0011F00C94730EA0911F02A73018F0E1E0E5
:101BEC00E0931F02A0911F02A33078F5ADADAA239C
:101BFC00AAF40E94E4190E94E91918F0E1E0E093BC
:101C0C00FA010E94F01918F0E2E0E093FA010E9448
:101C1C00F81918F0E3E0E093FA0116C00E94001ADC
:101C2C0018F4E091FB010EC00E94081A10F4E3E0D6
:101C3C0009C00E94101A10F4E2E004C00E94101AAD
:101C4C0018F0E1E0E093FA0103C0E1E0E093FA015F
:101C5C000E94561AA091FA01A13059F40E94BF19A2
:101C6C000E94BF190E941D1A0E94211AE0E0EA93FB
:101C7C002DC0A091FA01A23051F40E94BF190E940C
:101C8C00BF190E945E1A0E94BF19E1E023C0A09107
:101C9C00FA01A33061F40E94BF190E941D1A0E9420
:101CAC00631A0E94211A0E941D1AE1E011C0A09132
:101CBC00FA01A43091F40E94BF190E94661A0E9486
:101CCC00BF190E94211AE0E0EA93E1E0EA93E0E018
:101CDC00EA93E0E0EA930E946B1AA091F901AA3012
:101CEC0031F5A0911F02A73018F4E7E0E0931F0232
:101CFC00E0911F02E6500E94EA1BE1E0E093FA013A
:101D0C00A091FD01A03219F4EFE5E093FD01E1E6AD
:101D1C00E093FF01EFE5E093FE010E94BF190E94E2
:101D2C00DB1B0E94DE1B0E94DB1B0E946B1AA09126
:101D3C00F901AB3021F4A0911F02A63109F05DC06E
:101D4C00E091FB01E093FA010E94F61BEAABFBABBE
:101D5C006CAB7DAB0E94B41B0E945B1F19F40E94FC
:101D6C00B91B02C00E94C21BE0933602F0933702EB
:101D7C0060933802709339020E94CB1B51F40E947D
:101D8C00BF190E94DB1B0E94DE1BE1E0EA93E0E03E
:101D9C002AC0A091FA01A23051F40E94BF190E94EE
:101DAC00631A0E945E1A0E94631AE1E020C0A0919F
:101DBC00FA01A33061F40E94BF190E94E11B0E943A
:101DCC00631A0E94211A0E94E11BE1E00EC0A0914F
:101DDC00FA01A43079F40E94BF190E94E61B0E94FC
:101DEC00211AE1E0EA93EA93E0E0EA93E0E0EA9377
:101DFC000E946B1AE4E0E093FA01A091F901AB3078
:101E0C0021F4A0911F02A63109F434C1A0911F0244
:101E1C00ECE00E94FB1BEDE00E94011CE8E10E943B
:101E2C00AF1EE02971F1ADADAA23AAF40E94E4190A
:101E3C000E94E91918F0E1E0E093FA010E94F01910
:101E4C0018F0E2E0E093FA010E94F81918F0E3E0D0
:101E5C00E093FA0115C00E94001A10F4E4E00EC0E1
:101E6C000E94081A10F4E3E009C00E94101A10F442
:101E7C00E2E004C00E94101A18F0E1E0E093FA01CD
:101E8C0013C0A0911F02EEE00E94FB1BEFE00E942A
:101E9C00AF1EE02931F4A0911F02A03111F4E3E050
:101EAC0001C0E1E0E093FA010E94561AA0911F02D2
:101EBC00A63111F00C94B20F0E94F61B0E945B1F0E
:101ECC0049F4E4E0E093FF01EDE20E94CA190E949C
:101EDC00071C40C00E94E419A030E0E0BE07E0E817
:101EEC008E07EFE39E0749F40E940C1C0E94811997
:101EFC00E5E0E093FC01E1E02DC00E94E419A03084
:101F0C00E0E0BE07E0E08E07E0E49E0739F40E94B3
:101F1C000C1C0E94CA190E94071C1CC00E94E419C8
:101F2C00A030E0E0BE07E0E48E07E0E49E0751F449
:101F3C000E940C1CE093FE01E1E0E093FD010E9485
:101F4C00071C08C00E940C1C0E948119E5E0E0935C
:101F5C00FC01E3E0E093FA01A0911F02A931F9F42E
:101F6C000E94111C0E947A190E9499190E94111C3E
:101F7C000E94A1190E94A7190E94111C0E94A1196C
:101F8C000E94B3190E94111C0E94A119EAE0F0E012
:101F9C000E94D81EE093FC01E3E0E093FA01A091CB
:101FAC00FA01A13059F40E94BF190E94BF190E9476
:101FBC001D1A0E94211AE0E0EA932DC0A091FA01AB
:101FCC00A23051F40E94BF190E94BF190E945E1AE0
:101FDC000E94BF19E1E023C0A091FA01A33061F483
:101FEC000E94BF190E941D1A0E94631A0E94211A96
:101FFC000E941D1AE1E011C0A091FA01A43091F4E5
:10200C000E94BF190E94661A0E94BF190E94211AD1
:10201C00E0E0EA93E1E0EA93E0E0EA93E0E0EA93BF
:10202C000E946B1AA0911F02AB31D9F4A5EBB1E061
:10203C000E942E1FE093FF01A6EBB1E00E942E1F21
:10204C00E093FE01A7EBB1E00E942E1FE093FD018F
:10205C00A8EBB1E00E942E1FE093FC01E0E0E093BE
:10206C00FA01A0911F02AC3129F40E943919E0E069
:10207C00E093FA01A8E4B0E00E94261F0E94131D11
:10208C005E2F4517B9F1452FE52FE03039F4A0E369
:10209C00B0E00E94A71A0E941C1C28C0E130A9F0D5
:1020AC00E23029F40E94251C0E941C1C1FC0E33046
:1020BC0061F40E94251C0E943A1FA4E3B0E00E9428
:1020CC00CC1A0E943A1FE3E011C0A0E3B0E0E0E0BC
:1020DC00F0E060E070E00E943A1FA4E3B0E0E0E0C2
:1020EC00F0E060EA70E40E943A1FE4E0E093FA0149
:1020FC000E942C1C34FEAAC00E94AA1BE091010273
:10210C00E030E1F4A091F901AA3051F4A0911F0242
:10211C00AF5FA0931F02AD3118F0ECE1E0931F020A
:10212C00A091F901A13051F4A0911F02AF5FA093CF
:10213C001F02A73018F0E6E0E0931F02A091010205
:10214C00A03039F0A53129F0A0910202A63609F091
:10215C007AC0A091FA01A13079F40E94331C0E943C
:10216C00391CADADAA231AF40E94F01908F403C06F
:10217C00E2E0E093FA014BC0A091FA01A230C1F465
:10218C000E943C1C0E94391C0E94421C1CF40E94A0
:10219C00101A08F402C0E1E008C0ADADAA231AF48D
:1021AC000E94F81908F403C0E3E0E093FA012FC091
:1021BC00A091FA01A330B9F40E94461C0E94391C6C
:1021CC000E94421C1CF40E94081A08F401C007C0AB
:1021DC00ADADAA231AF40E94F81908F403C0E2E08A
:1021EC00E093FA0114C0A091FA01A43081F40E948A
:1021FC00F61B0E94FB180E94391C0E94421C1CF406
:10220C000E94001A08F403C0E3E0E093FA010E9474
:10221C004C1C0E94E4190E94691E09F010F40C94E5
:10222C001B110E944C1C0E94DF19E0910102E0304E
:10223C0019F4ECE3E0930102A0910102A53119F429
:10224C00E4E1E09301020E9429060FC0A091F9017C
:10225C00A43641F0A0E036FCA1E0A03019F40E94B5
:10226C005B1809F002C00E94541C35FEA8C00E94E5
:10227C00AA1BE0910102E030E1F4A091F901AA302F
:10228C0051F4A0911F02A150A0931F02A73018F483
:10229C00E7E0E0931F02A091F901A13051F4A09165
:1022AC001F02A150A0931F02A13018F4E1E0E093AB
:1022BC001F02A0910102A03039F0A53129F0A091A4
:1022CC000202A63609F078C0A091FA01A13069F497
:1022DC000E94331C0E945C1C1CF40E94101A08F013
:1022EC0003C0E2E0E093FA014EC0A091FA01A230E3
:1022FC00D1F40E943C1C0E945C1C1CF40E94081A25
:10230C0008F002C0E3E00CC0ADADAA233AF40E9481
:10231C00F01919F010F00C94941101C003C0E1E015
:10232C00E093FA0130C0A091FA01A330D1F40E94DD
:10233C00461C0E945C1C1CF40E94001A08F002C08F
:10234C00E4E00CC0ADADAA233AF40E94F81919F0E0
:10235C0010F00C94B21101C003C0E2E0E093FA015A
:10236C0012C0A091FA01A43071F40E94F61B0E94D5
:10237C00FB180E947F1D0E94DF19ADADAA231AF431
:10238C00E3E0E093FA010E94601C0E94E4190E94B1
:10239C00691E20F40E94601C0E94DF19E09101026A
:1023AC00E03019F4ECE3E0930102A0910102A531B5
:1023BC0019F4E4E1E09301020E9429060FC0A091F8
:1023CC00F901A43641F0A0E036FCA1E0A03019F4EC
:1023DC000E94561809F002C00E94541C42FE15C0FF
:1023EC0032FE13C00E94561881F40E945B1869F4E7
:1023FC00A0E033FCA1E0A03041F4A091F901A030A1
:10240C0021F0AA3011F0A13009F478C0A0911F027C
:10241C00E8E10E94FB1BE9E10E94011CEBE10E9438
:10242C00011CECE10E94AF1EE02909F067C00E947C
:10243C00491AAE0FBF1F0E94F61B0E943A1F0E9442
:10244C00AA1BA0911F02AD3011F40E942C1CA0916C
:10245C001F02A73101F5E0E0E0930002A091000219
:10246C00A631C8F4E0910002A0E0B0E0F0E00E94D8
:10247C009A1EEA0FFB1F0F01ACE6B0E0E0910002E0
:10248C00F0E00E949A1E0E94511AD0010E943A1F3D
:10249C000E94EB18E3CF0E94681C0E9480040E94EB
:1024AC00681C0E949A040E94BF190E94DB1B0E94A8
:1024BC00DE1B0E94DB1B0E946B1AE0E0E093000223
:1024CC00A0910002A43668F4EAE0F0E00E94D6196C
:1024DC007ED0EAE0F0E00E94D61979D00E94EB1889
:1024EC00EFCFE89442F80E94711CEA930E949A0480
:1024FC000E94AA1B0E946F1AE894F2F837FE02C0E1
:10250C00879901C034C0E89437F8F2F80E94AA1BEE
:10251C00E091F901E03031F4E1E0E093F901E0936E
:10252C001F0225C0E13051F4E2E0E093F9010E9472
:10253C00491A0E94511A0E94DF1919C0E23011F495
:10254C00E1E013C0EA3051F4EBE0E093F9010E94B2
:10255C00491A0E94511A0E94DF1909C0EB3011F47C
:10256C00EAE003C0E43619F4E4E6E093F9010E94D2
:10257C00241AEB3FA0E0FA07A0E06A07A0E07A0774
:10258C00FCF00E9446190E948004A091F901A03031
:10259C0021F034FC02C035FE0CC0E091FF01EA933F
:1025AC00E091FE01EA93E091FD01EA93E091FC01D8
:1025BC0002C00E94711CEA930E949A040E946F1A36
:1025CC0006D00C94EE090E94C419FDCFFFCF20FE5B
:1025DC004FC090D30E941E19E0912D02E03011F0F3
:1025EC000C943713A0916101A13091F4E8E0E61549
:1025FC0061F4A0916301E0916501AE0FA53010F478
:10260C00A8D202C00E94761C02C00E947A1C29C06B
:10261C00A0916101A83479F4E8E0E61549F4A091A1
:10262C006201A33010F425D302C00E94761C02C0B4
:10263C000E947A1C16C0A0916101A63479F4EAE0DC
:10264C00E61549F4A0916201A33010F4D2D202C075
:10265C000E94761C02C00E947A1C03C0E1E0EA933F
:10266C003CD3E89420F822F866240E941E19BB245F
:10267C0008952497EC81FD81309729F40E94B91BB1
:10268C000E947E1C75C1AC81BD81119729F40E94FA
:10269C00C21B0E947E1C6CC1AC81BD81129749F497
:1026AC000E94C4180E9400190E940A190E947E1CE4
:1026BC005FC1AC81BD81139711F00C949D1343FC49
:1026CC0005C00E940F190E947E1C03C0E0E00E940E
:1026DC000A1F45FE09C00E94811CA0E0B0E080E00A
:1026EC0090E40E94861D02C00E94811C0E94051F5E
:1026FC0044FE09C00E94811CA0E0B0E080E890E498
:10270C000E94861D02C00E94811C0E94051F43FE70
:10271C0009C00E94811CA0E0B0E080E091E40E941E
:10272C00861D02C00E94811C0E94051F21C1AC8124
:10273C00BD81A030E1E0BE0729F40E9414190E946B
:10274C007E1C16C1AC81BD81A130E1E0BE0729F42D
:10275C000E9419190E947E1C0BC1AC81BD81A23054
:10276C00E1E0BE0729F4ACE0B0E00E94841C00C19B
:10277C00AC81BD81A330E1E0BE0729F4A0E1B0E05B
:10278C000E94841CF5C0AC81BD81A430E1E0BE0781
:10279C0029F4A4E1B0E00E94841CEAC0AC81BD81A4
:1027AC00A530E1E0BE0729F40E94801B0E947E1C2C
:1027BC00DFC0AC81BD81A030E2E0BE0729F4ACE102
:1027CC00B0E00E94841CD4C0AC81BD81A130E2E099
:1027DC00BE0729F40E94851B0E947E1CC9C0AC81D7
:1027EC00BD81A230E2E0BE0729F4A4E2B0E00E9471
:1027FC00841CBEC0AC81BD81A330E2E0BE0729F4CD
:10280C00A8E2B0E00E94841CB3C0AC81BD81A430AE
:10281C00E2E0BE0729F40E94B41B0E947E1CA8C0F3
:10282C00AC81BD81A530E2E0BE0729F40E94911A6B
:10283C000E947E1C9DC0AC81BD81A630E2E0BE072B
:10284C0029F40E94DA190E947E1C92C0AC81BD81D1
:10285C00A730E2E0BE0729F4A8E3B0E00E94841C94
:10286C0087C0AC81BD81A830E2E0BE0729F4ACE39F
:10287C00B0E00E94841C7CC0AC81BD81A930E2E038
:10288C00BE0729F4A0E4B0E00E94841C71C0AC81A6
:10289C00BD81AA30E2E0BE0729F4A4E4B0E00E94B6
:1028AC00841C66C0AC81BD81AB30E2E0BE0729F46C
:1028BC00A8E4B0E00E94841C5BC0AC81BD81AC304C
:1028CC00E2E0BE0729F4ACE4B0E00E94841C50C0E6
:1028DC00AC81BD81AD30E2E0BE0729F4A0E5B0E0EB
:1028EC000E94841C45C0AC81BD81AE30E2E0BE07C5
:1028FC0029F4A4E5B0E00E94841C3AC0AC81BD81EF
:10290C00AF30E2E0BE0729F4A8E5B0E00E94841CD9
:10291C002FC0AC81BD81A031E2E0BE0729F4ACE54B
:10292C00B0E00E94841C24C0AC81BD81A131E2E0E6
:10293C00BE0729F40E9475190E947E1C19C0AC8137
:10294C00BD81A231E2E0BE0729F4A4E6B0E00E940A
:10295C00841C0EC0AC81BD81A331E2E0BE0729F41A
:10296C00A8E6B0E00E94841C03C0E0E00E940A1FAD
:10297C000E94811C7CC1AC81BD81A030E1E0BE070E
:10298C0019F4A4E0B0E0E0C0AC81BD81A130E1E07D
:10299C00BE0719F4A8E0B0E0D7C0AC81BD81A2306D
:1029AC00E1E0BE0719F4ACE0B0E0CEC0AC81BD8173
:1029BC00A330E1E0BE0719F4A0E1B0E0C5C0AC81E2
:1029CC00BD81A430E1E0BE0719F4A4E1B0E0BCC0C5
:1029DC00AC81BD81A530E1E0BE0719F4A8E1B0E0FF
:1029EC00B3C0AC81BD81A030E2E0BE0719F4ACE10C
:1029FC00B0E0AAC0AC81BD81A130E2E0BE0719F401
:102A0C00A0E2B0E0A1C0AC81BD81A230E2E0BE0783
:102A1C0019F4A4E2B0E098C0AC81BD81A330E2E02F
:102A2C00BE0719F4A8E2B0E08FC0AC81BD81A43020
:102A3C00E2E0BE0719F4ACE2B0E086C0AC81BD8127
:102A4C00A530E2E0BE0719F4A0E3B0E07DC0AC8194
:102A5C00BD81A630E2E0BE0719F4A4E3B0E074C077
:102A6C00AC81BD81A730E2E0BE0719F4A8E3B0E069
:102A7C006BC0AC81BD81A830E2E0BE0719F4ACE3B9
:102A8C00B0E062C0AC81BD81A930E2E0BE0719F4B0
:102A9C00A0E4B0E059C0AC81BD81AA30E2E0BE0731
:102AAC0019F4A4E4B0E050C0AC81BD81AB30E2E0DD
:102ABC00BE0719F4A8E4B0E047C0AC81BD81AC30CE
:102ACC00E2E0BE0719F4ACE4B0E03EC0AC81BD81DD
:102ADC00AD30E2E0BE0719F4A0E5B0E035C0AC8142
:102AEC00BD81AE30E2E0BE0719F4A4E5B0E02CC025
:102AFC00AC81BD81AF30E2E0BE0719F4A8E5B0E0CF
:102B0C0023C0AC81BD81A031E2E0BE0719F4ACE575
:102B1C00B0E01AC0AC81BD81A131E2E0BE0719F46E
:102B2C00A0E6B0E011C0AC81BD81A231E2E0BE07ED
:102B3C0019F4A4E6B0E008C0AC81BD81A331E2E099
:102B4C00BE0731F4A8E6B0E00E94001F0E943A1FB5
:102B5C008EC00E94871CE1E0EA930AD1A091650126
:102B6C00A13010F40C94FA15E0916301E03039F4C3
:102B7C0043FE02C0E1E001C0E0E0E0930002A0915E
:102B8C006301A13051F444FC04C0E0910002EE5FFB
:102B9C0002C0E0910002E0930002A0916301A23018
:102BAC0051F445FC04C0E0910002EC5F02C0E091DE
:102BBC000002E0930002A0916301A33051F443FCA6
:102BCC0004C0E0910002EC5F02C0E0910002E093CF
:102BDC000002E0916501E150E0936501E091630131
:102BEC00EF5FE0936301BACFE09100020E94911C69
:102BFC00089524971A930A93E0916401EA83E09173
:102C0C006501EB83E0916601EC83E0916701ED8354
:102C1C00009162011127102F0027E0916301F0E071
:102C2C000E0F1F1F1A930A93EC81FD816E817F8119
:102C3C000E940F1FA0DE0E94871CE0916201EA93A4
:102C4C0097D0E0916301EA9393D0E0916401EA9309
:102C5C008FD0E0916501EA938BD0E0916601EA9305
:102C6C0087D0E09167010E94911C198108812696FA
:102C7C00089524970E94651FE0916501EE0F0E2FB9
:102C8C0010E00E94871CE0916501EE0FEE0FEA93B5
:102C9C006FD0209162013327322F2227E0916301FC
:102CAC00F0E02E0F3F1F3A932A93E3DCEC83FD8375
:102CBC006E837F83013060F0DE0114960E94961CB7
:102CCC00DE0115960E94961C01501F5F1F5FF2CF0C
:102CDC0065D00E946A1F28960895E0916001EA93DE
:102CEC0047D0E0916101E068EA9342D0E8810E940C
:102CFC00911C52C01A93E0E0E0932D020E941E1921
:102D0C00A8E6B0E00E94261F0E94131D1E2FA09162
:102D1C0060011A1719F0E5E0E0932D0210E0EB2D9D
:102D2C00E2501E1740F4E12F0E942918E081EA932B
:102D3C0047D01F5FF4CF0E9489180E949F1E1E2F40
:102D4C00EB2DE1500E942918A0811A1719F0E2E02E
:102D5C00E0932D021091F701EB2DE2500E942918FF
:102D6C00A0811A1719F0E3E0E0932D021991089550
:102D7C00E881EA9325D0E881EA9301D00DC0F8945C
:102D8C00EC2DF0E0E056FE4FA881A083C394E0E464
:102D9C00EC1509F4CC24789421960895E091F70170
:102DAC00EA93EDDF0E9489180E949F1EEA93E7DFE9
:102DBC00929A0E942D18689421F80E941E19089569
:102DCC001A930E948918A981EA270E949D1C10E081
:102DDC00183098F4E091F701E17059F00E94A21CB0
:102DEC00A091F701B091F801E1E0F0EA0E948E1891
:102DFC0002C00E94A21C1F5FEBCF1881229608957F
:102E0C00E991E0300AF4E19508952497E0E0E88335
:102E1C00E983EA83EFE3EB831A930A93EB85FC8552
:102E2C00EF3FAFEFFA0739F40E94AC1CEEE6F2E08C
:102E3C000E94B11CB3C0EF3FAFE7FA0739F40E9410
:102E4C00AC1CEFE6F2E00E94B11CA8C0AC85AA2332
:102E5C0062F4E985FA856B857C850E94E01C0E94F2
:102E6C00B51C0E94BA1CEDE2EC93A885A73010F0BB
:102E7C00E6E0E8871885E12F1150E03029F00E9438
:102E8C00C11C0E94F118F7CF0E94C91C0E94861D1C
:102E9C000E94B51C10E00E940F190E94F1180E94AC
:102EAC00C91C0E94691E98F00E9405190E94CC1A38
:102EBC000E94D61D0E94F1181F5F173238F00E9435
:102ECC00AC1CE3E7F2E00E94B11C68C0E8CF103004
:102EDC0029F40E94BA1CE0E3EC932FC0E12F1150AF
:102EEC00E03059F10E94C11CA0E0B0E080E09FE30B
:102EFC000E94861D0E940F1F0E9407180E94F11845
:102F0C000E94C91C0E94241E0E94131D0E2F0E9499
:102F1C00BA1CE02FE05DEC93E02F0E940519FF270F
:102F2C00662777270E944C1D0E94D61D0E94CF1C3D
:102F3C000E94961A0E94B51CD1CFE885E03051F161
:102F4C000E94BA1CEEE2EC93E885E150E887EF5F53
:102F5C0009F10E94CF1C0E94CC1A0E94D61D0E941F
:102F6C00B51CE985FA856B857C850E94131D0E2F97
:102F7C000E94BA1CE02FE05DEC93E02F0E94CF1C66
:102F8C00FF27662777270E944C1D0E94961A0E94E5
:102F9C00B51CDACFAE81BF81E0E0EC9319810881DA
:102FAC002D9608957B816A81F981E88177FB770FF3
:102FBC0067FD7160972F9E5781F078F0983190F4EF
:102FCC00AA27BB27882708948795B795A7959A9524
:102FDC00D1F7EA23FB23682305C0E8947727EE2773
:102FEC00FF2766276F77769508F4606877F9A991C3
:102FFC00B99189919991EA17FB076807790797FBB3
:10300C0008950E94811C0E940F1F0E94D8170E94D5
:10301C007E1C19F40E94811C09C0E6F70E94811CD9
:10302C00A0E0B0E080E89FE30E947F1D2496089505
:10303C00E991F991A991B991CD0105900D920020DA
:10304C00E1F7FC010895F0E0E05AFE4F0895ED2DF4
:10305C00F0E0E056FE4FE081ECB90895A091E0015C
:10306C00AF5FA093E001A93C0895E091EB01F091D2
:10307C00EC016091ED017091EE010895A0E025FC4A
:10308C00A1E0A0300895689425F8E0E0E093F40105
:10309C000895A091F401AF5FA093F401A93C0895A9
:1030AC00A0E034FCA1E0A0300895A0E035FCA1E044
:1030BC00A0300895E12FF0E00895A0E047FCA1E0D6
:1030CC00A0300895A0E046FCA1E0A030089510784F
:1030DC00EC81EA930E9416031E2B08951078EB8165
:1030EC00EA930E9416031E2B08951078EA81EA9346
:1030FC000E9416031E2B08951078E981EA930E9412
:10310C0016031E2B0895E091F701F091F801089534
:10311C00EA27FB27E093F701F093F8010895DE010D
:10312C001496AE0FBF1F0895E02FF0E0DE011D9640
:10313C000895E053E093FC01E091FF01E030089525
:10314C00E0E2E093FF01E091FE01E0300895A8E495
:10315C00B0E00E94261FA0E0B2E00E94131DEC9389
:10316C00E0910002E0300895A0910202AF5FA093BD
:10317C00020208957ADF0E94891E0895E0911502DB
:10318C00A3E0B2E0F0E0EE0FFF1F0895E0911E0205
:10319C00F0E0DE011696AE0FBF1F0895E0911E02FF
:1031AC00A3E0B2E0F0E0EE0FFF1FAE0FBF1F0D90DB
:1031BC001C90E0910002A3E0B2E0F0E0EE0FFF1FE4
:1031CC00AE0FBF1F0E94F41E0895E0910002EF5F46
:1031DC00E09300020895EA83FB836C837D8308955A
:1031EC00EA81FB816C817D810895AFE6B2E183E8D1
:1031FC009AE30895AE0FBF1F0E94F41E0895AA8192
:10320C00BB818C819D810895662777270E944C1D78
:10321C000895E0E0F0E060E87FE30895A4E0B0E01A
:10322C000E94261F0895A8E0B0E00E94261F089572
:10323C00EFEFFFEFE093F701F093F8010895A0EBA7
:10324C00B1E00E942E1FE093FA0108950EDFE09387
:10325C002102F09322026093230270932402E1E096
:10326C00E0931F020895E6E7E093FF01E1E0E093AD
:10327C00FE01E0E0E093FD01E1E0E093FC01089544
:10328C00E091FF01EA93E091FE01EA93E091FD01E8
:10329C00EA93E091FC01EA9308950E948004F0CF38
:1032AC000E949A04E0E0EA93EA93EA93EA93EA93A1
:1032BC00EA93EA93EA9308950E949203E0E0EA937A
:1032CC00EA93EA93EA93EA93EA93EA93EA930E94E5
:1032DC000A04ECEDF5E0FA93EA930C94D41CA0E606
:1032EC00B0E00E94261F0895DF01CB01E0E0F0E082
:1032FC006AE774E40895E093FE01E0E0E093FD01D9
:10330C000895E093FC01BCCF0E948004E0E0EA93B6
:10331C00EA93EA93EA930895A0E0B0E08AE794E494
:10332C000E94D61D08950E94241EAFEFB1E00E94AA
:10333C00131DEC9308950E94151D66277727DF0156
:10334C000895E8EEF3E00E94D81EDF01E4E6F0E019
:10335C000E94D31EE093FE010895E4E6F0E00E9483
:10336C00D81EDF01EAE0F0E00E94D31EE093FD01DD
:10337C000895E0E0EA93EA93EA930895E8EEF3E027
:10338C00FA93EA930C94D41CE093FE01E2E0E093F0
:10339C00FD010895E093FE01E0E2E093FD01089544
:1033AC00FA93EA930C94D41CA4E3B0E00E94261F79
:1033BC000895EAAFFBAF6CAF7DAF0895AAADBBAD7E
:1033CC008CAD9DAD0895E0E0F0E06AE774EC0E94EE
:1033DC00691E0895F3DFE0E0F0E068EC72EC0E9407
:1033EC00691E0895EBDFE0E0F0E060E271EC0E9412
:1033FC00691E0895E3DFE0E0F0E060E271E40E9412
:10340C00691E0895DBDFE0E0F0E068EC72E40E94F6
:10341C00691E0895D3DFE0E0F0E06AE774E40E94EF
:10342C00691E0895E091FA01E093FB010895E0E034
:10343C00EA93EA9308950E9492039BCFA0912102F4
:10344C00B0912202809123029091240293CEE0E26B
:10345C00E093FC01E0911F02E2300895E093FF013C
:10346C00EFE5E093FE01E2E00895E0E7E093FF0171
:10347C00EFE5E093FE010895E3E6E093FF01EFE54D
:10348C00E093FE010895E0911F02A0E0B0E0F0E0AF
:10349C000E949A1E0895AE0FBF1F0E94261F08950A
:1034AC00EAADFBAD6CAD7DAD0E940F1F0C94D20448
:1034BC00E1E0EA93E0E0EA93BECFE1E0EA93B7CF34
:1034CC00E0E0EA93E1E0EA930895E0E0EA930C94FB
:1034DC000A04CBDDE0932102F093220260932302D5
:1034EC00709324020895EAA9FBA96CA97DA9AEA941
:1034FC00BFA988AD99AD0E94D61D0895A0E0B0E09B
:10350C0080EA91E40E94D61DDF01CB01E0E0F0E6F9
:10351C0061E675E40895A0E3B0E00E94261F0895CB
:10352C000E94191F0E947F1D08950E94241EEEA761
:10353C00FFA768AB79ABEFCFAEA5BFA588A999A9BA
:10354C000895E0E0F0E060E870E40895EAA7FBA7D6
:10355C006CA77DA70895E0E0F0E060EA71E40895BF
:10356C00DF01CB01E0E0F0E060EA70E4DECFE4DF05
:10357C00E0E0F0E060E070E00E94D61D0895E6DF28
:10358C00E0E0EEA3EFA3E8A7E9A70895E0E0F0E000
:10359C0060E271E40895A0912E02B0912F02809107
:1035AC0030029091310208950E94D61DAAA5BBA5A8
:1035BC008CA59DA50E94861DE0933202F0933302E8
:1035CC0060933402709335020895A8E3B0E00E9432
:1035DC00261FDF01CB01E0E0F0E068EC72E40E9412
:1035EC00241EA0E0B0E080E89FE39ACFAEA1BFA17B
:1035FC0088A599A50E94D61D0895ACE3B0E00E9461
:10360C00261FDF01CB01E0E0F0E068EC72E40E94E1
:10361C00241EA0E0B0E080E89FE30E94861DAAA1D2
:10362C00BBA18CA19DA10E94D61D0895A091320230
:10363C00B091330280913402909135020E94691E40
:10364C000895EE8DFF8D68A179A1F0CFACE1B0E0CB
:10365C000E94261FDF01CB01E0E0F0E068EC72E491
:10366C000E94241EA0E0B0E080E89FE359CFE894CC
:10367C0044F8F0F8A4E1B0E00E94261F0E945B1F02
:10368C000895E030A0E0FA07A0E86A07AFE37A07F4
:10369C000895A0E5B0E00E94261F0E945B1F0895CC
:1036AC00EA8DFB8D6C8D7D8DC1CFE89445F8F1F8DA
:1036BC00A4E1B0E00E94261F0E945B1F0895A4E5C0
:1036CC00B0E00E94261F0E945B1F0895A091EB01A1
:1036DC00B091EC018091ED019091EE010E94161FCA
:1036EC001FCF0E94261FA0E0B0E088E494E40E9463
:1036FC00D61D0895A8E1B0E00E94261F0895A0E20F
:10370C00B0E00E94261F0895A4E1B0E00E94261F9D
:10371C000E945B1F0895E030A0E0FA07A0E06A0762
:10372C00A0E47A070895A091EF01B091F001809187
:10373C00F1019091F2011ECDED3DA5E0FA07A0E05C
:10374C006A07A0E07A07089590DCE0932502F093D5
:10375C00260260932702709328020895ACE2B0E031
:10376C000E94261F0895E0912E02F0912F02609185
:10377C003002709131020895E0913202F0913302DF
:10378C0060913402709135020895E0913602F09107
:10379C00370260913802709139020E940F1F0E940B
:1037AC00D204A091FA01A1300895E1E0EA93E1CDB1
:1037BC00E0E0EA9340CEE1E0EA93E0E0EA9308959A
:1037CC00E1E0EA93EA93D5CDFF27662777270E949D
:1037DC004C1D0E940F1F0C94D204E093FD0127CEC8
:1037EC00EAADFBAD6CAD7DAD08950E94AF1E0E2E03
:1037FC00A0911F0208950E94AF1E0E2AA0911F02D5
:10380C000895E0E0E093FC01E1E00895E0E0E0934E
:10381C00FF01EDE20895A4E6B0E00E94261FA0E0AF
:10382C00B0E088EC92E40E94D61D08950E943A1FE5
:10383C00A4E3B0E090DE0E943A1FE3E00895A0E319
:10384C00B0E0E0E0F0E060E070E00895E091FA01B3
:10385C00A0EBB1E00E944A1FE5CDC2DFA0E0B0E0D2
:10386C0080E89FE308950E94861DA3CDB9DFADECDF
:10387C00BCEC8CEC9DE30895A1DD0E945F1F0895C4
:10388C00AFDFAAE0B7ED83E29CE30895A8EDB0E0CA
:10389C00E0911F02F0E00E949A1EFDCDE0E0E09363
:1038AC000102E0930202E093200208950E947F1D22
:1038BC0080DDE2CFA4E4B1E0E0911F02F0E00E94D1
:1038CC009A1EE9CDE0E2EA93E3E0EA93E1E6EA93BB
:1038DC00EFEEEA930895E0E2EA93EA93EA9308950F
:1038EC00E2E0EA930C947316E3E0EA930C947316FB
:1038FC000E94051F08950E94001F08950E94261F14
:10390C00F7CFE0916001EA930E94BE16E09161014D
:10391C00EA930C94BE16EA930E94BE160C94D4162D
:10392C00EE27A10FBE1FEC91EA930C94BE16E09308
:10393C00F701F093F8010895E6DBF595E795F7DFCD
:10394C00E091F801EF77E093F8010895EE81FF81A3
:10395C00FA93EA930895FA93EA930C941E18E98764
:10396C00FA876B877C870895AE81BF811196AE83F1
:10397C00BF831197089543DCEDECFCEC6CEC7DE31C
:10398C000E94D61D08952CDCA985BA858B859C8553
:10399C000895A985BA858B859C850895E991F9913F
:1039AC00309639F080ED97E00197F1F7A8953197B3
:1039BC00C9F7089530976040704009F07058089529
:1039CC00552342F4503811F4E0FF04C03196691FBE
:1039DC00791F6BF050E8572711F45F93CFC05F3F0E
:1039EC0031F0660F000C57956795752F08955F930E
:1039FC0000200AF0CFC0C8C050E8192E1522880F3D
:103A0C00991F9527550F879550E8072E0522660FAD
:103A1C00771F7527550F67950895689401C0E89432
:103A2C005F93F2DF703818F07F3F08F4A7C056E1BF
:103A3C00571BAAF4519558300EF4593030F0EFEF73
:103A4C00FFEF6FEF7FE777F91AC077275523B9F0AF
:103A5C00EE0FFF1F661F771F5A95D1F710C07727FF
:103A6C00583028F0EF2FF62F672F5850F9CF5523E9
:103A7C0031F076956795F795E7955A95D1F7002033
:103A8C000AF44AD15F910895689401C0E894309784
:103A9C0060407040B1F0002426F0772312F40094BB
:103AAC003BD1172E7EE1112032F07A95EE0FFF1FDD
:103ABC00661F111CF9CFEF2FF62F612D5F938ADF54
:103ACC005F9108954F93AF01FD01DA01AB01BC0189
:103ADC00CA01402D012C142E4F910895EA0FFB1FA3
:103AEC00681F0895E095F0956095EF5FFF4F6F4F5D
:103AFC0008955F9381DF903871F150E8152604C06A
:103B0C005F937ADF903839F1703821F1572F591BB8
:103B1C002BF112F4D7DFFACF583118F0AA27BB27B4
:103B2C008827583028F0AB2FB82F88275850F9CF5A
:103B3C00552329F08695B795A7955A95D9F7502D09
:103B4C00512572F0CBDF38F46795F795E7957395AF
:103B5C0013F420C0B7DF3EDF5F910895D8F7FBCF99
:103B6C00EA1BFB0B680B51F010F40094BBDF6623CF
:103B7C0092F3EE0FFF1F661F7A95CBF7EE27FF2708
:103B8C00662777275F910895EFEFFFEF6FE77FEFE1
:103B9C005F910895EFEFFFEF6FE77FE75F91089577
:103BAC005F932ADF703851F3903841F30124089465
:103BBC00791F23F41CF300203AF3ECCF0F921F93E0
:103BCC002F933F934F93112722279927689FA0018A
:103BDC008F9F302D410D591F6B9F300D411D591F6B
:103BEC008E9F27D0BF9F25D06A9F23D0BE9F1DD00C
:103BFC00AF9F1BD0AE9F110D291F391F491F591F95
:103C0C00E32FF42F652F522F4F913F912F911F913E
:103C1C000F9066232AF0550FEE1FFF1F661F02C080
:103C2C0073954BF2CDDE5F910895100D211D391F58
:103C3C0002C0200D311D491F591F08955F93DCDE12
:103C4C00703821F411200AF49FCFA4CF903809F4D6
:103C5C0095CF01240894970B1BF4D4F30020F3CFD9
:103C6C00792F1F932F933F934F93112411272227C2
:103C7C0033274427552790E2AE17BF078607410725
:103C8C0030F0AE1BBF0B860B410B089401C088941F
:103C9C00551F221F331F111CAA1FBB1F881F441F37
:103CAC009A9551F7F901612D4F913F912F911F91E9
:103CBC00662332F0550FEE1FFF1F661F7A9543F2F5
:103CCC007FDE5F91089599239AF0772342F097173E
:103CDC0048F029F4AE17BF07860720F031F098940E
:103CEC008894089598940894089518948894089545
:103CFC007723C2F7971798F3A9F7EA17FB0768071A
:103D0C0088F399F3ECCFEA1BFB0B680B790B089546
:103D1C00F195E195F0400895F09560957095E195D9
:103D2C00FF4F6F4F7F4F0895EE0FFF1FEE0FFF1FDA
:103D3C000895EF2FFF27E7FDFFEF0895FE2FFF0FEC
:103D4C00FF0B6F2F7F2F08956F2F660F660B762F4B
:103D5C000895EA17E1E009F0EE270895EA17FB074A
:103D6C00E1E00CF4EE270895EA17FB07E1E008F414
:103D7C00EE2708950024112490E1AA0FBB1F001C0C
:103D8C00111C0E1A1F0A18F40E0E1F1E01C0A16082
:103D9C009A9599F7FD01D001089512D0EBDF0EF43E
:103DAC00B7DF0895E894B7FF04C0A095B0951196BD
:103DBC006894F7FDADDFDEDFFD010EF4A9DF089599
:103DCC00E894F7FF02C0A4DF6894B7FF06C0A09583
:103DDC00B095119600F8039400FA0895ED91FC91BA
:103DEC0011970895ED93FD936D937C930895A59190
:103DFC00B4910895E881F9816A817B810895E88303
:103E0C00F9836A837B830895E883E983EA83EB83F0
:103E1C0008957A936A93FA93EA930895689401C08B
:103E2C00E89401D034DE182E862F612D192E972F91
:103E3C00712D1B2EBF2FF12D1A2EAE2FE12D0895B3
:103E4C00129602D0BF011297119602D0FE2F119735
:103E5C00E199FECFFF93FFB7F894AEBBBFBBE09ADE
:103E6C00EDB3FFBFFF91089507D012960F01FB0130
:103E7C0003D0F0011297089507D01196EF93EF2F0E
:103E8C0003D0EF9111970895E19B02C0A895FCCF48
:103E9C009FB7F894AEBBBFBBE09A8DB3E81719F08F
:103EAC00EDBBE29AE19A9FBF089530976040704055
:103EBC00089500240A160B060806090608953A937D
:103ECC002A931A930A9308953B812A8119810881B8
:103EDC000895AC0FBD1F05900D928A95E1F70895DA
:00000001FF
