:020000000C945E
:10000200DF000C9400000C9400000C94C1020C94CC
:1000120081010C947E010C947F010C9480010C945C
:1000220079010C944B010C9400000C940F010C9478
:1000320000000C9434010C9400000C9400000C9409
:1000420000000C9400000C9400000C9478010C94B5
:100052000000000000000000000000C079C4003C65
:100062001C4600C079C4003C1C4600000000000091
:10007200F041000000000000F0410000000000001C
:10008200803F000000000000803F000000000000F0
:100092002041000000000000803F0000000000003E
:1000A200803F000000000000803F000000000000D0
:1000B200803F000000000000803F00C079C4003C87
:1000C2001C4600C079C4003C1C4600000000000031
:1000D2007A440000000000007A44000000000000A2
:1000E200C842000000000000F0410000803F000014
:1000F200A0400000803F0000204100C079C4003CC5
:100102001C4600C079C4003C1C460000003F0000B1
:10011200C03F0000000000007A4400000000000020
:100122007A44000000000000C84200000000000005
:10013200F0410000803F0000A040000000000000ED
:10014200803F0000000000002041000070410000DC
:10015200004100000041000000000000803F00005C
:1001620000000000803F0000803F0000803F000050
:10017200803F0000803F000080400000A04100005E
:10018200004000000040000020410000204100002B
:1001920000400000A040000000000000A04100005C
:1001A200000000000000000000000000000000004D
:1001B200000000000000000000000000F894EE279C
:1001C200ECBBF1E0FBBFEBBFE5BFF8E1F1BDE1BD88
:1001D2008DE0A2E0BB27ED938A95E9F780E094E0F9
:1001E200A0E6ED930197E9F7ECEBF1E085919591AB
:1001F200009761F0A591B59105901590BF01F001AE
:1002020005900D920197E1F7FB01F0CFEFE5EDBF0D
:10021200E4E0EEBFCCE8D1E00C94B605AA93BA9321
:10022200EA93EFB7EA931A930A930BB11CB1E02F4A
:10023200EC7189F4A62DB0E0A457BE4F1C936394D1
:10024200E0E2E61509F466248394E0E2E81519F485
:100252008824689420F809911991E991EFBFE991F6
:10026200B991A9911895EA93FA93EFB7EA93BB2053
:1002720061F0BA94EA2DF0E0E455FE4FE081ECB96A
:10028200A394E0E2EA1509F4AA24E991EFBFF991F7
:10029200E9911895EA93EFB7EA93EEE6E2BFA895E3
:1002A20021FE02C024FC01C00AC022FE04C0A99A99
:1002B200E89422F803C0A998689422F814C023FE97
:1002C20011C0C394E8ECEC1518F4E89423F8CC249C
:1002D20022FE04C0A99AE89422F803C0A99868945F
:1002E20022F801C0A998E991EFBFE99118951895F4
:1002F200EA930E94D80EE9911895189518951895C9
:100302006A937A93AA93BA93EA93FA93EFB7EA932A
:100312000A93E3E8E4BD7894E091D601F091D70125
:100322006091D8017091D901EF5FFF4F6F4F7F4FFE
:10033200E093D601F093D7016093D8017093D9016D
:1003420084990EC0689425F831FC02C023FE01C0D6
:1003520004C0689435F823F8EE24689431F80DC08F
:10036200859B07C0869B05C0879B03C00E94DD0E4C
:1003720008F003C0E89425F831F885990EC0689416
:1003820026F832FC02C023FE01C004C0689436F88D
:1003920023F8EE24689432F80DC0849B07C0869B34
:1003A20005C0879B03C00E94DD0E08F003C0E894DD
:1003B20026F832F886990EC0689427F833FC02C0FA
:1003C20023FE01C004C0689437F823F8EE24689431
:1003D20033F80DC0859B07C0849B05C0879B03C073
:1003E2000E94DD0E08F003C0E89427F833F88799DD
:1003F2001BC0689430F834FC12C040F823F8E09136
:10040200D601F091D7016091D8017091D901E093A2
:10041200DA01F093DB016093DC017093DD016894F3
:1004220034F8E89445F803C0E89430F834F8A09121
:10043200DE01B091DF011196A093DE01B093DF01DE
:10044200E0EDF7E0EA17FB072CF4E0E0E093DE01D1
:10045200E093DF01A091DE01B091DF01AC32E1E077
:10046200BE076CF401E0E89421F844FC02C045FEAA
:1004720003C0689421F802C0E89421F807C000E0A4
:1004820042FC02C043FE02C0689421F8EFEFEBBBCE
:10049200AB98AC98AD98AE98A398A498A598A69856
:1004A200A798ED2DE93031F4DD24AB9AA39A0E948E
:1004B200E10E5CC0E83039F4E9E0DE2EAB9AA39A93
:1004C2000E94E10E53C0E73049F4E8E0DE2EAC9A18
:1004D200A49AAEECB1E00E94E80E48C0E63049F4BE
:1004E200E7E0DE2EAC9AA49AAEECB1E00E94E80EF0
:1004F2003DC0E53049F4E6E0DE2EAD9AA59AA0EDC6
:10050200B1E00E94E80E32C0E43049F4E5E0DE2EAC
:10051200AD9AA59AA0EDB1E00E94E80E27C0E330A3
:1005220049F4E4E0DE2EAE9AA69AA2EDB1E00E9472
:10053200E80E1CC0E23049F4E3E0DE2EAE9AA69A41
:10054200A2EDB1E00E94E80E11C0E13039F4E2E020
:10055200DE2EAF98A798EFEFEBBB08C0E1E0DE2EEE
:10056200AF9AA79AA4EDB1E00E94E80E0991E99131
:10057200EFBFF991E991B991A99179916991189592
:100582001895E881E03019F4E0E4E88375C0E130C1
:1005920019F4E9E7E88370C0E23019F4E4E2E88391
:1005A2006BC0E33019F4E0E3E88366C0E43019F489
:1005B200E9E1E88361C0E53019F4E2E1E8835CC077
:1005C200E63019F4E2E0E88357C0E73019F4E8E7CF
:1005D200E88352C0E83019F4E0E0E8834DC0E93026
:1005E20019F4E0E1E88348C0E03219F4EFE7E88368
:1005F20043C0EF3519F4E7E7E8833EC0E33D19F461
:10060200E1E1E88339C0E13619F4E8E0E88334C077
:10061200EF3E19F4E8E4E8832FC0E33619F4E6E488
:10062200E8832AC0ED3219F4EFE3E88325C0E4370A
:1006320019F4E2E7E88320C0E23619F4E9E7E88337
:100642001BC0E43619F4EEE5E88316C0E53619F46A
:10065200EFE2E88311C0E63619F4E7E1E8830CC063
:10066200E73619F4EBE4E88307C0E83619F4E5E667
:10067200E88302C0E2E7E883E881219608950E94B8
:10068200EF0E31F40091CC0100680093CC0105C05B
:100692000091CC010F770093CC01EB81E03039F46B
:1006A200EEECF1E0008100680093CE0106C0EEECB2
:1006B200F1E000810F770093CE01EA81E03039F456
:1006C200E0EDF1E0008100680093D00106C0E0EDAA
:1006D200F1E000810F770093D001E981E03039F435
:1006E200E2EDF1E0008100680093D20106C0E2ED84
:1006F200F1E000810F770093D201A885A03011F4B8
:1007020041FE01C006C0E091D401E160E093D40152
:1007120005C0E091D401EE7FE093D401AF81A03017
:1007220011F443FE01C006C0E091D401E260E093FF
:10073200D40105C0E091D401ED7FE093D401AE81F4
:10074200A03011F442FE01C006C0E091D401E46081
:10075200E093D40105C0E091D401EB7FE093D40192
:10076200ED81E03031F4E091D401E860E093D4010E
:1007720005C0E091D401E77FE093D40181C00E94DB
:10078200EF0E39F4EDECF1E0008100680093CD0149
:1007920006C0EDECF1E000810F770093CD01EB8113
:1007A200E03039F4EFECF1E0008100680093CF0112
:1007B20006C0EFECF1E000810F770093CF01EA81F0
:1007C200E03039F4E1EDF1E0008100680093D101FD
:1007D20006C0E1EDF1E000810F770093D101E981DC
:1007E200E03039F4E3EDF1E0008100680093D301D9
:1007F20006C0E3EDF1E000810F770093D301A885F5
:10080200A03011F441FE01C006C0E091D501E160C3
:10081200E093D50105C0E091D501EE7FE093D501CB
:10082200AF81A03011F445FE01C006C0E091D501B0
:10083200E260E093D50105C0E091D501ED7FE09340
:10084200D501AE81A03011F444FE01C006C0E09192
:10085200D501E460E093D50105C0E091D501EB7FBD
:10086200E093D501ED81E03031F4E091D501E8600B
:10087200E093D50105C0E091D501E77FE093D50172
:100882000881299608950A930091CC0100780E946C
:10089200F30E0E2B0093CC01EEECF1E00081007818
:1008A2000E94F70E0E2B0093CE01E0EDF1E00081E5
:1008B20000780E94FB0E0E2B0093D001E2EDF1E0D6
:1008C200008100780E94FF0E0E2B0093D201088156
:1008D200ECC00A93EDECF1E0008100780E94F30E87
:1008E2000E2B0093CD01EFECF1E0008100780E9425
:1008F200F70E0E2B0093CF01E1EDF1E000810078BD
:100902000E94FB0E0E2B0093D101E3EDF1E000817A
:1009120000780E94FF0E0E2B0093D3010881C5C000
:10092200E0E0E093E601E093E501E093E401E09387
:10093200E301A881B98110978CF5E0E0F0E0EA1BB1
:10094200FB0BE883F983A881B981A83EE3E0BE07E7
:100952001CF00E94030FF7CFA881B981A436E0E012
:10096200BE071CF00E940F0FF7CFA881B981AA30F1
:10097200E0E0BE071CF00E941B0FF7CFA881B981EF
:10098200A130E0E0BE071CF4E0E0E883E983E881FF
:10099200E093E301EDE2E093E60127C0A881B9818B
:1009A200A83EE3E0BE071CF00E94030FF7CFA88128
:1009B200B981A436E0E0BE071CF00E940F0FF7CF0A
:1009C200A881B981AA30E0E0BE071CF00E941B0F8B
:1009D200F7CFA881B981A130E0E0BE071CF4E0E0C6
:1009E200E883E983E881E093E301E091E601E03006
:1009F20019F4E0E2E093E601229608951A930A932D
:100A0200C498E1E5EDB9E1E8EFB9779BFECFEFB12C
:100A1200F0E00E2F1F2FE0E0EFB9102F0027779B99
:100A2200FECFEFB1A02FB12FF0E0EA0FFB1F0E2F88
:100A32001F2FC49AE02FF12F09911991089524973D
:100A4200EC810E94260FE883F9836A837B830E94EC
:100A5200380F0E943D0FA881B9818A819B810E9433
:100A62001C1319F010F00C9449050E94380FBF9323
:100A7200AF930E946811AF91BF91EA0FFB1F0E94D2
:100A82007811A881B9818A819B810E941C1348F444
:100A9200A4E4B1E0EC810E94450FE883F9836A8304
:100AA2007B83E881F9816A817B8125960895A091F3
:100AB2001303E4E1EA1748F40E944D0FE7E6EA1750
:100AC20018F4E6E6E093EB014FC0A091EB01E4E6F7
:100AD200EA1770F40E944D0FEAE6EA1740F4E6E6E0
:100AE200E093EB01E0911303EF5FE09313033CC04B
:100AF200A0911C03B0911D0380911E0390911F03CE
:100B02000E94530FE2E3F0E060E070E00E944013C5
:100B12002CF4A091EA01E0E0EA1708F025C0E09188
:100B2200D601F091D7016091D8017091D901E0937B
:100B32001C03F0931D0360931E0370931F03A09187
:100B4200EA01A150A093EA01A43170F4E8E2E09333
:100B5200EA010E944D0FE4E0EA1730F4E6E6E09382
:100B6200EB01EAEFE093EA010895A097E4B7E0FF12
:100B720003C00E94600F17C0E4B7E1FF03C00E94E8
:100B8200600F11C0E4B7E2FF03C00E94600F0BC008
:100B9200E4B7E3FF03C00E94600F05C0E4B7E4FFBF
:100BA20002C00E94600FEFEFEBBBEABBE0E0E8BBE4
:100BB200E3EBE7BBE8EFE5BBEBEFE4BBE0EFE2BB67
:100BC200E8E0E1BBE2E0E3BFEEE6E2BFE0E0ECBF7B
:100BD200849B06C0859B04C0869B02C0879901C086
:100BE200F7CFE0E0EFBDE5E0EEBD0E94D80EE0E019
:100BF200E7BDE4E0E6BDE0E0EBBDE2E0EABDE0E057
:100C0200E9BDE3E0E8BDE0E0E2BDE3E0E5BDE3E845
:100C1200E4BDE0E0E3BDE5BFE4BFEFEFE9BFE0E044
:100C2200EBB9E8EDEAB9E6E8E0BDE0E0E0BDE3E318
:100C3200E9B9E0E8E8B9E0E0E0BFE2E5EDB9E0E01B
:100C4200EEB9EFE1E1BDEFE0E1BDE4E10E94640F46
:100C5200E0911103A091E901AE17B8F4849906C09E
:100C6200879904C0859B02C0869901C004C0E091A7
:100C7200E901EF5F01C0E0E0E093E901E4E6F0E0C2
:100C8200FA93EA930E944E11E3CF939A7894E1E5A6
:100C9200F0E00E946A0FE8EEF0E00E94790F19F08E
:100CA20010F00C945906E4EEF0E00E94790F40F443
:100CB200ECE8F1E00E947811E887F9876A877B8780
:100CC2000E94820FE885F9856A857B850E94EA1178
:100CD2000E94640FA0911103E0E0EA1710F00C9457
:100CE2004E07E0911103E150E0931103A091E90155
:100CF200AF5FA093E901E5E0EA1718F4E0E0E093C2
:100D0200E901E091E901E03041F40E948D0F0E9477
:100D120044040E948D0F0E946A04A091E901A1304F
:100D220041F40E94960F0E9444040E94960F0E9472
:100D32006A04A091E901A23041F40E949F0F0E942F
:100D420044040E949F0F0E946A04A091E901A3300B
:100D520041F40E94A80F0E9444040E94A80F0E941E
:100D62006A04A091E901A43041F40E94B10F0E94EB
:100D720044040E94B10F0E946A04A091E901A530C7
:100D820041F40E94B90F0E9444040E94B90F0E94CC
:100D92006A040E94C20F0E94C70F0E94CA0F0E94DB
:100DA200C70F0E94CF0F0E94D30FE091E9010E946A
:100DB200260FE887F9876A877B870E94D90F0E94EE
:100DC2003D0FA885B9858A859B850E941C1319F061
:100DD20010F00C94F9060E94D90FBF93AF930E94B2
:100DE2006811AF91BF91EA0FFB1F0E94790F40F487
:100DF2000E94DF0FA091E001B091E1010E94A511D4
:100E02000E94820FA091E901AE3061F0AD3051F045
:100E1200AE3041F0A53131F0A63121F0A03011F011
:100E2200A130E1F4A885B9858A859B85E0E0F0E0F0
:100E320068EC72E40E94A912E887F9876A877B87C7
:100E42000E94C20F0E94E40F0E94E40F0E94E90F69
:100E52000E94C20F0E94E40FE1E009C00E94C20F8B
:100E62000E94C70F0E94CA0F0E94E40FE0E0EA93BB
:100E72000E94ED0F0E94C003E885F9856A857B8593
:100E82000E94F10F0E94F70F0E9444040E94F70F84
:100E92000E946A040E94D30F1DCFE89431F832F801
:100EA20033F834F835F836F837F87894E0E0E09320
:100EB200E201E0E0F0E060E070E0E0930803F0932C
:100EC200090360930A0370930B03E091D601F0913A
:100ED200D7016091D8017091D901E0931403F09386
:100EE200150360931603709317030E940410E09396
:100EF2000C03F0930D0360930E0370930F030E9493
:100F020008100E943C1319F4E89424F802C0689473
:100F120024F8A895A091F502AF5FA093F502E8E04E
:100F2200EA1718F4E0E0E093F502E091F5020E947E
:100F32000C10EA0FFB1FFF93EF930E94FF04AF9187
:100F4200BF91ED93FC9309E0E0E0E0931003A091E0
:100F52001003A93010F00C9406080E941210E0E071
:100F6200EC93E093E901A091E901A93010F00C940F
:100F7200F707E0911003EA17B1F10E940C10AE0FCF
:100F8200BF1F0E947411FF93EF93E091E9010E9449
:100F92000C10AE0FBF1F0E947411AF91BF91AE171C
:100FA200BF0728F40E941210EC91E150EC93E091FB
:100FB20010030E940C10AE0FBF1F0E947411FF930A
:100FC200EF93E091E9010E940C10AE0FBF1F0E9447
:100FD2007411AF91BF91EA17FB0728F40E94121017
:100FE200EC91EF5FEC930E941810BDCF0E941E108F
:100FF200E01728F40E941E100E2F10911003E091AA
:101002001003EF5FE0931003A2CFEDE4F0E00E9443
:101012006A0FE885F9856A857B850E943C1361F435
:10102200E12F0E940C10AE0FBF1F0E9474116627A1
:1010320077270E941D1239C0E885F9856A857B856C
:10104200AFE6B2E183E09BE30E94DB12E887F98717
:101052006A877B87E12F0E940C10AE0FBF1F0E9490
:101062007411A885B9858A859B85662777270E9492
:101072001D120E94A9127F936F93FF93EF93A8858D
:10108200B9858A859B85E0E0F0E060E87FE30E9415
:101092005412AC81BD818E819F810E94A912AF91B1
:1010A200BF918F919F910E945B12EC83FD836E83AF
:1010B2007F83A091E201A73061F4EC85FD856E8506
:1010C2007F85E0930C03F0930D0360930E037093FE
:1010D2000F03AC81BD818E819F81E8EBFEE165E863
:1010E2007FE30E94A9120E942710EC8BFD8B6E8B6E
:1010F2007F8BE6E1EA930E9420057F936F93FF9333
:10110200EF93E5E1EA930E942005AF91BF918F91A1
:101112009F910E9483110E9454127F936F93FF93B9
:10112200EF930E9430107F936F93FF93EF930E948F
:101132003410AF91BF918F919F910E9483110E94B1
:101142005412AF91BF918F919F910E94DB12E88759
:10115200F9876A877B870E943410AC89BD898E89A2
:101162009F890E9483110E945412A885B9858A859D
:101172009B850E94A912E883F9836A837B830E947C
:1011820034107F936F93FF93EF93EFE00E94381038
:10119200A0E0B0E080E89FE30E9483110E94541215
:1011A200AF91BF918F919F910E943C1018F4689467
:1011B20041F81EC00E9430107F936F93FF93EF930C
:1011C200E0E10E943810A0E0B0E080E89FE30E94D6
:1011D2005B12AF91BF918F919F910E943C1009F0D9
:1011E20010F40C94F708689441F802C0E89441F8AE
:1011F200E5E2F0E00E946A0FEDE0F0E00E944510A7
:101202007F936F93FF93EF930E945010AF91BF9122
:101212008F919F910E943C1009F010F40C941409D4
:10122200689442F804C0E89442F844F8F0F8E1E126
:10123200F0E00E9445107F936F93FF93EF930E941B
:101242005010AF91BF918F919F910E943C1009F075
:1012520010F40C942F09689443F803C0E89443F8FF
:10126200F1F844FE02C0C09A01C0C09845FE02C017
:10127200C19A01C0C198F0FE1FC0EC8DFD8D6E8D2C
:101282007F8D0E9461107F936F93FF93EF930E9473
:101292007010A0E0B0E08AEF94E40E94A912AF912E
:1012A200BF918F919F910E941C1309F010F40C942E
:1012B2005C09689444F812C042FE10C0E091D60165
:1012C200F091D7016091D8017091D9010E941D124D
:1012D200EC8FFD8F6E8F7F8F6894F0F8F1FE1FC048
:1012E200E88DF98D6A8D7B8D0E9461107F936F93DB
:1012F200FF93EF930E947410A0E0B0E08AEF94E4B1
:101302000E94A912AF91BF918F919F910E941C13CD
:1013120009F010F40C948F09689445F812C043FE4A
:1013220010C0E091D601F091D7016091D80170917F
:10133200D9010E941D12E88FF98F6A8F7B8F689402
:10134200F1F80E9478107F936F93FF93EF93E4E19B
:101352000E948B10AF91BF918F919F910E9480113B
:101362000E941C1309F010F40C94BC09E0E0E09315
:10137200E201E894F2F840FE04C0A091E201A0303C
:1013820009F004C0E89440F86894F3F8F3FE04C04E
:1013920030FE02C025FE01C026C0A091DA01B09144
:1013A200DB018091DC019091DD010E94530FE8EB9B
:1013B200FBE060E070E00E944013ACF4EAE0E093EE
:1013C200E201E091D601F091D7016091D8017091CC
:1013D200D901E0931803F093190360931A037093F1
:1013E2001B03E894F3F8F3FE04C030FE02C025FCB0
:1013F20001C013C0A091DA01B091DB018091DC0140
:101402009091DD010E94530FE0EDF7E060E070E0A3
:101412000E94401314F4F894C6CBE091E201E0304C
:1014220029F545FC11C00E94951029F4EC89FD892B
:101432006E897F8904C0E881F9816A817B81E88BAA
:10144200F98B6A8B7B8B10C00E94951029F4EC8972
:10145200FD896E897F8904C0FF8FFFFFFFFFFFFFB9
:10146200FFFFFFFFFFFFFFFFFFFFFFFFFFFFFFFF8A
:10147200FFFFFFFFFFFFFFFFFFFFFFFFFFFFFFFF7A
:10148200FFFFFFFFFFFFFFFFFFFFFFFFFFFFFFFF6A
:10149200FFFFFFFFFFFFFFFFFFFFFFFFFFFFFFFF5A
:00000001FF
