:0A0000000C9430000C9400000C94E6
:10000A0000000C9400000C9400000C9400000C9466
:10001A0000000C9400000C9400000C9400000C9456
:10002A0000000C9400000C9400000C9400000C9446
:10003A0000000C9400000C9400000C9400000C9436
:10004A0000000C9400000C94000001000000040061
:10005A00600154000000F894EE27ECBBF1E0FBBF0E
:10006A00EBBFE5BFF8E1F1BDE1BD8DE0A2E0BB2742
:10007A00ED938A95E9F780E094E0A0E6ED93019785
:10008A00E9F7E8E5F0E085919591009761F0A5918F
:10009A00B59105901590BF01F00105900D92019759
:1000AA00E1F7FB01F0CFEFE5EDBFE4E0EEBFC0E61C
:1000BA00D1E00C9471001A930A93A7D0DF01E8ECFF
:1000CA00F0E00E948301E053F84F0E2F1F2FE02F1C
:1000DA00F12F099119910895A397A8950F5FE8E068
:1000EA00E01708F400E0E02F0E942D01EA0FFB1F41
:1000FA00FF93EF930E946000AF91BF91ED93FC9341
:10010A0039E020E0293010F00C94D8000E94330125
:10011A00E0E0EC9310E01930C0F52117A1F1E22FCD
:10012A000E942D01AE0FBF1F0E949601FF93EF930D
:10013A00E12F0E942D01AE0FBF1F0E949601AF91C1
:10014A00BF91AE17BF0728F40E943301EC91E1502A
:10015A00EC93E22F0E942D01AE0FBF1F0E94960161
:10016A00FF93EF93E12F0E942D01AE0FBF1F0E9454
:10017A009601AF91BF91EA17FB0728F40E94330159
:10018A00EC91EF5FEC931F5FC6CF0E9433010E9490
:10019A003A01E31734F40E9433010E943A013E2FD8
:1001AA00422F2F5FAFCFE42F0E942D01AE0FBF1F4A
:1001BA000E949601A881B9818A819B816627772747
:1001CA000E94BF010E944B027F936F93FF93EF93AC
:1001DA00A881B9818A819B81E0E0F0E060E87FE351
:1001EA000E94F601AC81BD818E819F810E944B02E3
:1001FA00AF91BF918F919F910E94FD01EC83FD8386
:10020A006E837F836ACFA396FFCFE0916001F0915E
:10021A0061016091620170916301ADE6BEE486EC12
:10022A0091E40E945001EE59F8486F4F7F4FE093D6
:10023A006001F09361016093620170936301E62F9C
:10024A00F72FFF770895E991E0300AF4E1950895D0
:10025A00F0E0DE015196EE0FFF1F0895E22FF0E065
:10026A00DE011896AE0FBF1F0895EC91EA930C9425
:10027A002801E095F09531960895E095F0956095FE
:10028A007095EF5FFF4F6F4F7F4F08956F2F660F87
:10029A00660B762F08957A9F702D6B9F700DF89FCD
:1002AA00700DE99F700D6A9F602D710DFB9F600DA7
:1002BA00711DE89F600D711D8827FA9FF02D610D51
:1002CA00781FEB9FF00D611D781FEA9FE02DF10D5D
:1002DA00681F781F08950024112490E1AA0FBB1FFC
:1002EA00001C111C0E1A1F0A18F40E0E1F1E01C044
:1002FA00A1609A9599F7FD01D001089504D0EBDF2A
:10030A000EF4B7DF0895E894F7FF02C0B2DF6894ED
:10031A00B7FF06C0A095B095119600F8039400FAAD
:10032A000895ED91FC911197089550E8572711F41B
:10033A005F93A0C05F3F31F0660F000C5795679539
:10034A00752F08955F9300200AF09AC08DC050E877
:10035A00192E1522880F991F9527550F879550E852
:10036A00072E0522660F771F7527550F6795089583
:10037A00689401C0E894309760407040B1F000245E
:10038A0026F0772312F4009478DF172E7EE11120ED
:10039A0032F07A95EE0FFF1F661F111CF9CFEF2F6F
:1003AA00F62F612D5F93C1DF5F9108955E2FEA2FCB
:1003BA00A52F5F2FFB2FB52F562F682F852F572F6D
:1003CA00792F952F502D012C152E0895EA0FFB1F1A
:1003DA00681F0895E095F0956095EF5FFF4F6F4FA6
:1003EA0008955F93B4DF903871F150E8152604C080
:1003FA005F93ADDF903839F1703821F1572F591BCF
:10040A0013F112F4D3DFFACF583118F0AA27BB2719
:10041A008827583028F0AB2FB82F88275850F9CFA3
:10042A00552329F08695B795A7955A95D9F7502D52
:10043A00512562F0CBDF38F46795F795E795739508
:10044A0013F41EC0B3DF71DF5F910895EA1BFB0B43
:10045A00680B81F010F40094BDDF6623A2F3EE0F5F
:10046A00FF1F661F7A95CBF7EFEFFFEF6FE77FEF7E
:10047A005F910895EE27FF27662777275F910895F2
:10048A00EFEFFFEF6FE77FE75F9108955F935FDF1D
:10049A00703881F3903871F301240894791F23F49A
:1004AA004CF300200AF3ECCF3F934F9311243327E8
:1004BA004427552798E1330F441F551FEE1FFF1F8E
:1004CA00661F30F43A0F4B1F581FE11DF11D611DC5
:1004DA009A9589F74F913F9166232AF0550FEE1F9F
:1004EA00FF1F661F02C07395E3F21FDF5F91089535
:00000001FF
