:080000000C942B000C9400008D
:100008000C9400000C9400000C9400000C94000068
:100018000C945C000C9400000C945B000C940000A1
:100028000C9400000C9400000C9400000C94000048
:100038000C9400000C9400000C9400000C94000038
:100048000C9400000C9400000C9400000000F8943C
:10005800EE27ECBBF1E0FBBFEBBFE5BFF8E1F1BD7C
:10006800E1BD8DE0A2E0BB27ED938A95E9F780E03A
:1000780094E0A0E6ED930197E9F7E4E5F0E08591D7
:100088009591009761F0A591B59105901590BF01E4
:10009800F00105900D920197E1F7FB01F0CFEFE534
:1000A800EDBFE4E0EEBFC0E6D1E00C945D0018952A
:1000B8001895E0E0E2BBE0E3E1BBE3ECEFBDEAE08A
:1000C800EEBDE1E0EBBDEFE7EABDA895FECFFFCFBF
:00000001FF
